:020000040800F2
:1000000070040020D5000008050A0008030A000853
:1000100000000000000000000000000000000000E0
:10002000000000000000000000000000410B00087C
:100030000000000000000000070A0008ED0B0008A7
:100040000501000805010008050100080501000878
:10005000050100080501000805010008B1070008B6
:100060000000000005010008050100080501000866
:100070000501000805010008050100080000000056
:10008000810C0008050100080000000005010008BF
:100090000501000805010008050100080501000828
:1000A000050100080501000805010008DB0C000837
:1000B000DD0C000800000000000000000501000841
:1000C0000348854600F03EFA00480047151800082E
:1000D000700400200C4880F308880C480168090E61
:1000E0000B4A914205D10B480B4901600B480C4962
:1000F00001600C4880470C480047FEE7FEE7FEE73A
:10010000FEE7FEE7FEE700007004002004000000A8
:100110001F00000018100240010000000000014014
:1001200000000000210C0008C100000830B50B469B
:10013000014600202022012409E00D46D5409D42C1
:1001400005D31D469540491B254695404019154647
:10015000521E002DF1DC30BDF0B51FB40646002064
:1001600082B005464024019100901BE0019922468F
:100170000F46304600F008FA049A059B801A994110
:1001800010D310461946224600F0EEF9361A8F4178
:100190000197224601200021009F00F0E5F9381860
:1001A0004D4100902046641E0028DFDC019B009832
:1001B0002946324607B0F0BDF0B50746084658401C
:1001C00087B0C00F049048000E4659004008490807
:1001D000BC1A884105D2384631461E4617460B46A2
:1001E00002465800400810434CD0300D03904005A3
:1001F0005900400D490D0590401A0290402872DACE
:1002000018030121000B090508430190049800928E
:10021000002805D0019952420020884100920190A7
:10022000029840210A1A0199009800F09DF90546AC
:100230000C466B4607CB00F0B8F9C0197141039A20
:100240000E0D0023D71756401A467A40164344D065
:10025000049A002A2DD0029A012A039A15DC12056D
:10026000C01A914101263605001C7141D20F059E2E
:10027000D2070093019202962A46234600F0B5F970
:1002800007B0F0BD38463146FAE71605224A0F4658
:10029000B218C01AB74101210905001C4F410018CE
:1002A0007F41114618187941E20F10436D196441DE
:1002B00013E0E2076D0815436408C2071443039A6C
:1002C00001261205C01A91413605001C7141CE0766
:1002D000400830434908C01851412A46234600F0DF
:1002E00077F9CDE7FFE7049801224000C117121A01
:1002F00000238B4104983146C417381AA141EEE718
:1003000030B40124E407634030BC55E730B4012425
:10031000E407614030BC4FE70000E0FFF0B51FB4D8
:1003200088B00B990998002448400999C00F4900EA
:1003300049080991C0070B990090490049080B91A1
:1003400009990898A64608431CD00B990A980843B7
:1003500018D0099801244000420D4800410D099829
:1003600024050003000B204309900B980003000BA9
:1003700020430B9050181C4940180022019014464D
:10038000104605E0002001460DB0F0BD032801DA5B
:10039000034600E003239C46C11A0AAE0AE05F0050
:1003A00008ADED5B4F00F75B7D430027AA187C4149
:1003B000491C5B1E6145F2DD410004AB5A52210429
:1003C000120C0A43240C401C0828DFDB0198029021
:1003D0000099704601910090059B049A0799069830
:1003E00000F003F9D0E700000DFCFFFFF0B50C466C
:1003F0005C4085B0E40FE40703944C0000266408D9
:1004000059009446490802460296224321D062468A
:100410000A431ED06200570D4A000E032303550DF8
:10042000012402462C492405781B1B0B360B40186F
:1004300023432643614600901C46501AB44103D31F
:100440000098401C009002E0921800985B41002840
:1004500003DA0020014605B0F0BD002001210905A6
:100460000746864611E064461D46141BB54106D377
:100470006546521BB341744607430C43A646CD075D
:1004800040084908284392185B4105460D43EAD1CC
:100490001046184313D06046194650407140084337
:1004A00006D06046101AB34106D20122002306E0AE
:1004B00000220123DB0702E00122D24353100098FF
:1004C00074460105381C6141029C039D0019694175
:1004D00000F07EF8BFE70000FD0300004A000903BA
:1004E0000123090B1B0519430A4B10B5520D9A4203
:1004F00002DA0020014610BD064B34339A4203DC79
:100500009A1A00F041F810BD034BD21800F02CF8F5
:1005100010BD0000FF030000CDFBFFFF10B5002958
:1005200004DB0124E40740428C412146002B04DB1C
:100530001C460123DB075242A341994200D190425D
:1005400010BD0000064C0125064E05E0E36807CC0F
:100550002B430C3C98471034B442F7D3FFF7B4FD5B
:10056000541900087419000810B5202A04DB01464C
:10057000203A9140002010BD914020239C1A034650
:10058000E3401943904010BD10B5202A04DB084613
:10059000203AD040002110BD0B46D340D04020244B
:1005A000A21A91400843194610BD10B5202A06DB57
:1005B000CB170846203A1041C1170B4306E00B4603
:1005C0001341D0402024A21A91400843194610BD7F
:1005D00010B5002B08DA0024401C614192185B41E1
:1005E0001A4301D14008400010BDF0B51FB482B0DD
:1005F00005460C0003D0084600F088FC02E000F03D
:1006000085FC20300246009021462846FFF7ACFFCB
:10061000049B059A04460F4618431143084314D01F
:10062000184610431BD0009840210A1A1846059915
:10063000FFF7AAFF05460E46009A05990498FFF7B2
:1006400093FF084305D0012004E02046394607B057
:10065000F0BD0020C11705430E432C4337430099DA
:100660000E986305401A7905E40A00220C43FD0A3E
:100670000A3002D500200146E9E701051019694159
:100680000C9C0D9D00196941FFF7A2FFDFE710B533
:10069000002806D0012805D0022802D1084600F023
:1006A000DFFB10BD084600F095FB10BD70B57D2145
:1006B0000546C900FFF73AFD0A4CE0700846642180
:1006C000FFF734FDA07064212846FFF72FFD084690
:1006D0000A21FFF72BFD60700A212846FFF726FD4F
:1006E000217070BD00000020074949884843074930
:1006F00048610020886101220A610A69D203FCD5A1
:1007000008618861704700002000002000E000E0E0
:100710000749497848430749486100208861012218
:100720000A610A69D203FCD508618861704700003C
:100730002000002000E000E010B5134811490160DE
:1007400012494160124981601249C1601249016138
:1007500012494161124981611249C1611249016224
:10076000C820FFF7A3FF00F043FA074800F0C8F8DD
:1007700010230E4A0021044800F0EDF80A20FFF78C
:10078000B3FF10BDD90800084800002091080008F8
:100790009F080008AD080008BB0800083B090008D6
:1007A00049090008C9080008D10800080400002011
:1007B00010B5FF240134204600F014F8002807D0BB
:1007C000204600F009F803480068002800D0804760
:1007D00010BD00003400002001494861704700004E
:1007E00000040140034A0146526900200A4200D039
:1007F0000120704700040140F0B500220124234687
:100800000D6893401D409D422AD10D79012D01D0E4
:10081000022D12D1876855000326AE40B74387608A
:100820004E79AE4085682E43866085889D438580DD
:1008300085888B7993401D43858006685500032386
:10084000AB409E4306600E790768AE403E430660AB
:10085000C6689E43C660CB79AB40C5682B43C36076
:10086000521C102ACBD3F0BD4B07DB0E9A40C908AF
:1008700010B589000818016A0F249C40A143016249
:10088000016A1143016210BD0185704781617047A3
:1008900010B509201021C006FFF7F8FF10BD10B5F4
:1008A00009201021C006FFF7EFFF10BD10B5092089
:1008B0008021C006FFF7EAFF10BD10B50920802196
:1008C000C006FFF7E1FF10BD10B5FFF70DFF10BD2B
:1008D00010B5FFF71DFF10BD1CB50121480400F045
:1008E00093F8B020009001206946087100208871BB
:1008F00003224A71C8710920C006FFF77DFF1CBDA5
:1009000010B50446006880475221204600F047F8A1
:100910003021204600F043F80021204600F03FF847
:100920000A21204600F03BF80221204600F037F86B
:100930000621204600F033F810BD10B50920202113
:10094000C006FFF7A3FF10BD10B509202021C00687
:10095000FFF79AFF10BDF8B5064680681F4615469A
:100960000C4680470322A021304600F02DF8A00657
:10097000010E0622304600F027F8002407E029780F
:100980000822304600F020F8641CE4B26D1CBC4222
:10099000F5D370688047F16902208847F8BD70B5CB
:1009A000044680680D46804704228021204600F0DE
:1009B0000BF808222946204600F006F860688047B8
:1009C000E1690120884770BDF8B517460E46044618
:1009D000002513E0A0698047F00901D0E06800E03D
:1009E000206980477006060E216A022088476069E8
:1009F0008047216A022088476D1CEDB2BD42E9D3D1
:100A0000F8BD704770477047044A0029516901D00A
:100A1000014300E081435161704700000010024033
:100A2000044A0029D16901D0014300E08143D1612A
:100A30007047000000100240044A0029916901D06B
:100A4000014300E0814391617047000000100240C3
:100A5000F8B5354D0446696800200C22334E11402C
:100A600005D0042903D0082903D00C2918D026600A
:100A700018E06968686803228902D2030F0F1040EA
:100A8000BF1C002809D0E86A0107090F3046491C3D
:100A9000FFF74CFB7843206004E025487843FAE7F1
:100AA000244921606968244F0906090F7B5C21688D
:100AB0000A46DA4062606B685B055B0FFB5CDA40FC
:100AC000A2602B6BDB0501D41C4B05E06B685B045B
:100AD00001D4530800E09308E3602B6BDB0601D4DC
:100AE000666100E061612B6B9B070ED02B6B9B074F
:100AF0009B0F012B0BD0296B8907890F022908D086
:100B0000296BC943890707D007E0A26105E0A1610D
:100B100003E00121C903FAE7A661E261296B090636
:100B200000D404486062F8BD0010024000127A0050
:100B300000093D00006CDC0224000020809FD500ED
:100B4000704700003CB500222048019200920168E5
:100B500001231943016002210524240305680D4087
:100B60000095019D6D1C0195009D002D02D1019DF8
:100B7000A542F3D10468A40726D50093144B1F2285
:100B80001A60426842604268426042687F23DB0329
:100B90009A43426042682123DB031A4342600268A1
:100BA00001231B061A43026002689201FCD54268C9
:100BB00092089200426042680A4342604168090715
:100BC000890F0229FAD13CBD00923CBD00100240C1
:100BD00000200240042204490428086902D09043FE
:100BE000086170471043FBE700E000E07047000039
:100BF00010B50420C043FFF7EDFF0748C1690902A3
:100C0000090AC16105497D220878D200C0084870F0
:100C10005043488010BD000004ED00E0200000209B
:100C200010B5144801680122114301604168124A5D
:100C3000114041600168114A1140016001680122C0
:100C400092049143016041683F2212049143416044
:100C5000C16A09090901C162016BFF225432914343
:100C60000163416B49084900416300218160FFF73E
:100C700069FF10BD001002400CB8FFF8FFFFF6FE40
:100C800010B50C4C0221204600F01BF800280FD0B4
:100C90000221204600F012F8074800238268C1684C
:100CA000521C59418260C1604068002800D08047D2
:100CB00010BD00000004004038000020C94301823C
:100CC00070470246138A002092890B400A40002B8D
:100CD00002D0002A00D0012070477047704701629F
:100CE00070470029016802D00122114301E0490840
:100CF0004900016070470246D26900200A4200D0D4
:100D00000120704710B50B041C0E01238B40022CF0
:100D100002D0032C02D002E0001D00E00830016880
:100D2000002A01D0194300E09943016010BD000082
:100D300070B5044600688AB00D46002640084000A1
:100D400020606068032109038843A968014361604A
:100D500020681A49EA680840696811432A69024311
:100D600011432160A0680321090288436969014396
:100D7000A1606846FFF76CFE1148844201D1069ECF
:100D800003E01048844200D1079E206829680004CF
:100D900001D5700000E03046FFF7C8F92A68520814
:100DA0008A4200D8401C2168090404D50107064A7C
:100DB000490F10400843A0810AB070BDF3E9FFFF5E
:100DC0000038014000440040F0FF0000C905C90D93
:100DD0000185704770B50546012188B04804FFF7CA
:100DE00013FE01218803FFF727FE0921CE06012209
:100DF0003046FFF739FD01220A213046FFF734FD66
:100E000003204002069002206946087703204877B5
:100E100000248C770120C87706A93046FFF7ECFC48
:100E2000009501940294039405940C200A4C0490BC
:100E300069462046FFF77CFF01212046FFF751FF5E
:100E400040212046FFF74BFF012204492046FFF7CF
:100E500059FF08B070BD00000038014005010500D1
:100E6000F0B5012106464C0489B02046FFF7CCFDC1
:100E700001212046FFF7D4FD0927FF0601220221A8
:100E80003846FFF7F1FC012203213846FFF7ECFC5E
:100E90000C2502216846069501770321417700243D
:100EA00084770121C17706A93846FFF7A5FC009693
:100EB00001940294039405940A4C694604952046D3
:100EC000FFF736FF01212046FFF70BFF40212046A8
:100ED000FFF705FF012204492046FFF713FF09B081
:100EE000F0BD000000440040050105000FB410B53E
:100EF00003A9044B044A029800F0E8F810BC08BCAF
:100F000004B01847051800081C0000202021020C1E
:100F100001D010211046020A01D0104608390209FA
:100F200001D01046091F820801D01046891E4208D0
:100F300001D0881E7047081A704702E008C8121FC7
:100F400008C1002AFAD170477047002001E001C1B2
:100F5000121F002AFBD17047F0B51FB486B0099864
:100F6000089A030D0021024314D05148514A181821
:100F7000504305141198012810981AD0281A401CC3
:100F800000264D4F4D49009601910490002812DA39
:100F9000444211E01198012449A3012801D110987D
:100FA000C1430698119A84600360C26041600BB02F
:100FB000F0BD4042E4E70446210500203F4A001C02
:100FC00051410391029012E0E00707D032463B46C0
:100FD00001990098FFF7A2F90191009032463B4633
:100FE00010461946FFF79AF906460F466410002C82
:100FF000EAD10498039B0028029A0999089806DA16
:10100000FFF78CF9019B009AFFF788F905E0FFF7DD
:10101000EDF9019B009AFFF7E9F904460E4600221C
:10102000284BFFF77BFA03D80020C043014607E0B6
:101030000022254B20463146FFF7BEF8FFF74EFA57
:10104000102409E0002C0ADB0A220023FFF784F8B1
:10105000079B30321A55641E02460A43F2D1112210
:10106000641C079B121B1C19119B012B03D001232D
:1010700008430ED10AE0084304D01120109000204C
:10108000119077E71098151A6D1E0BE010988242A8
:1010900002DD00236D1C03E0824201DA00236D1E95
:1010A000002BEED0069811998260C16030C07EE7B7
:1010B00001FCFFFF104D0000000014400000F03F55
:1010C000300000000000F0430000E03FFFB597B0A3
:1010D0000646002518E2252877D100242746FD4939
:1010E000049400E00443761C32780120203A9040BA
:1010F0000842F7D130782A280ED0022230780146F3
:101100003039092916D804990A235943303940182F
:101110001443761C0490F1E7189802C804911890C3
:10112000002904DA012040030443484204900220CD
:101130000443761C30782E2814D1042004437078A0
:10114000761C2A2809D11898761C80C8189009E0C6
:101150000A214F43303FC719761C30780146303999
:101160000929F5D930786C2810D006DC4C281AD023
:1011700068280ED06A2817D104E0742813D07A2882
:1011800012D110E00120400504430CE001210905C3
:1011900001E0032109050C437178814203D101204C
:1011A00000052418761C761C3078119066280BD028
:1011B00013DC58287DD009DC00287BD04528F6D0E8
:1011C0004628F4D047281AD1A5E118E0632835D085
:1011D000642870D0652812D19DE170286CD008DC9D
:1011E0006728F1D069287BD06E280DD06F2806D1F2
:1011F000BAE073282ED0752871D0782859D01A9A61
:10120000199990476D1C7EE16002400F022809D0B9
:1012100003280DD00428189801680DD00D60001D1A
:10122000189070E11898EA1701680D604A60F6E7B7
:10123000189801680D80F2E70D70F0E718986A467B
:1012400001781172001D18900020507202A80090C1
:10125000012005E0189802C8189000200091C043B2
:1012600061070DD5002101E00199491C0191B942A6
:1012700012DA8142F8DB009A515C0029F4D10BE0CC
:10128000002101E00199491C01918142FADB019A98
:101290000099895C0029F5D1019904981A9B471A95
:1012A00021463846199A00F097FA019940194518D5
:1012B0000BE04FE02CE113E04EE00098009900783D
:1012C000491C00911A9A199990470198401E019063
:1012D000401CF2D1214638461A9B199A10E137E09A
:1012E0000A200021009001916002410F022907D0DD
:1012F000189A01CA1892C2179446032908D00AE026
:101300001898C01DC108C90005C91891944607E086
:1013100000B2C2179446042902D140B2C1178C46CC
:1013200000226146944506DA0A4600214042914176
:101330008C462D2102E0210504D52B216A4611732C
:10134000012103E0E10701D02021F7E7029155E0F8
:101350000A200AE0102008E010200090002104205C
:1013600004430191082703E0082000210191009027
:101370006002410F022907D0189A01CA1892002270
:101380009446032908D008E01898C01DC108C90078
:1013900005C91891944603E080B2042900D1C0B277
:1013A00000210291210729D51199702906D0009AB0
:1013B0001021019B4A401A4305D00EE040216A46A5
:1013C0001173012108E06146014306D030216A46CD
:1013D00011731199517302210291009A0821019B06
:1013E0004A401A430AD16146014301D1610705D53C
:1013F00030216A46117301217F1E029111995829EB
:1014000004D035A10E910DA90D910DE037A1F9E79A
:101410006146019B009AFEF79FFE0E9B8C469B5CEB
:101420000D9A521E0D92137061460143F0D10D9832
:1014300005A9081A20300190600703D50120000497
:10144000844300E001270198874201DD381A00E05B
:101450000020019900904118029809180498401A38
:101460000490E00306D421461A9B199A049800F0D0
:10147000B3F94519002706E003A81A9AC05D199927
:1014800090476D1C7F1C02988742F5DBE0030CD56A
:1014900021461A9B199A049800F09EF9451904E018
:1014A0001A9A3020199990476D1C0099481E009097
:1014B0000029F5DC08E00D980D990078491C0D9184
:1014C0001A9A199990476D1C0199481E019000299C
:1014D000F1DC63E10928010030313233343536372D
:1014E0003839616263646566000000003031323370
:1014F0003435363738394142434445460000000010
:1015000000F05AF94519761C3078002800D0E2E541
:1015100028461BB0F0BD600700D406271898C01DF0
:10152000C108C90048680A680831C30FDB07189171
:10153000190001D09CA108E0210501D59BA104E080
:10154000E10701D09AA100E09AA1430011985B083D
:10155000109165280CD006DC452809D046281DD0FE
:10156000472841D141E0662818D067283CD13CE0AB
:101570000021112F01DB112000E0781C0191009067
:1015800008A911A8FFF7E8FC139905910021119A09
:1015900015927F1C12980197009150E00120C0071E
:1015A00003900120019008A9009711A8FFF7D4FC2F
:1015B000139A149905920022119B00921298159388
:1015C000059A0192002901D0104602E0791C4018CA
:1015D0000190381A01D5019804E04042401E009065
:1015E000781C0190C01B029043E0012F00DA012714
:1015F0000021112F01DD112000E0384601910090FB
:1016000008A911A8FFF7A8FC13990591119A0021C8
:10161000129815920091019721070CD40599B942AF
:1016200001DB019900E00191012904DD159A491EB1
:10163000515C302906D0B84201DA011D05DA0121DA
:10164000029115E00199491EEDE7002805DC00999B
:10165000411800910199091A03E0019A411C914235
:1016600000DD01910099401A401C02900120C00742
:101670000390200706D402990198814202DB0020E2
:10168000C043029000206946C87707AF0121039844
:101690000337C907884224D0022011902B201290D2
:1016A000039800280CDA404203902D20129007E0A6
:1016B0000A210398FEF73AFD30317F1E03903970FE
:1016C0001199481E11900029F2DC03980028EFD1EF
:1016D000791E129808703078202108404530BF1ECE
:1016E000387006A8C01BC01D039010980078002811
:1016F00000D00120019941180298C01709180398D9
:1017000009180498401A401E0490E00306D42146AC
:101710001A9B199A049800F05FF845191098007800
:10172000002803D01A9A199990476D1CE00324D51C
:1017300021461A9B199A049800F04EF845191CE0AE
:101740000098002807DB00990598884203DD15986A
:10175000405C199901E0199930201A9A9047009835
:101760006D1C401C00900298401E0290002804D17D
:101770001A9A2E20199990476D1C0199481E0190C4
:101780000029DDDC05E038781A9A7F1C199990470A
:101790006D1C0399481E03900029F4DC21461A9B16
:1017A000199A0498ACE600002D0000002B00000000
:1017B0002000000000000000F8B5044600251E4689
:1017C0001746880404D405E039462020B0476D1C34
:1017D000641EF9D52846F8BDFFB50446002581B042
:1017E0001E46C80301D5302700E02027880404D511
:1017F00005E038460399B0476D1C641EF9D52846AC
:1018000005B0F0BD10B50446C0B200F08BF820461C
:1018100010BD000000F096F8112219A11AA0FFF7E0
:1018200065FB1DA0FFF762FB122215A116A0FFF7B2
:101830005DFB1BA0FFF75AFB132211A112A0FFF7BB
:1018400055FB21A0FFF752FB15220DA10EA0FFF7BB
:101850004DFB1EA0FFF74AFBFEF76EFF192208A101
:1018600009A0FFF743FB1CA0FFF740FB1B2204A1CC
:1018700024A0FFF73BFB27A0FFF738FBFEE70000A3
:101880006D61696E2E630000252D3130730925349A
:1018900064205B445D2000000A0D0A0D000000007A
:1018A000202020202020202A2A2A2057656C636FC0
:1018B0006D6520746F207468652050726F6A65636F
:1018C00074202A2A2A0A0D000A0D00004C434420E5
:1018D000546573740D0A0000706C6561736520694E
:1018E0006E707574206868EFBC9A6D6DEFBC9A736A
:1018F0007320746F206368616E67652074696D651D
:101900000D0A0000252D31307309253464205B4910
:101910005D2000005374617274206C6F6F700A0D4B
:101920000000000010B5064C01462046FFF74EFAB5
:1019300080212046FFF7DFF90028F9D010BD000014
:101940000038014010B5E12149020120FEF79FFE59
:1019500010BD0000741900080000002048000000BD
:101960003A0F0008BC1900084800002028040000B5
:101970004A0F00080000000000000000EB0AAD8FD5
:101980004EC7E78AEFCF85EE67E12FE5E400000060
:1019900000000000480000000000000001020304F5
:1019A000010203040607080900000000000000000F
:0C19B0000000000000000000000000002B
:04000005080000C12E
:00000001FF
