:020000040800F2
:1000000010070020D5000008630400086104000800
:1000100000000000000000000000000000000000E0
:10002000000000000000000000000000D9050008EA
:100030000000000000000000B50400086D06000884
:100040000501000805010008050100080501000878
:100050000501000805010008050100080501000868
:100060000000000005010008050100080501000866
:100070000501000805010008050100080000000056
:10008000D106000805010008000000000501000875
:100090000501000805010008050100080501000828
:1000A000050100080501000805010008C507000852
:1000B000C70700080000000000000000050100085C
:1000C0000348854600F072F900480047D50900084A
:1000D000100700200C4880F308880C480168090EBE
:1000E0000B4A914205D10B480B4901600B480C4962
:1000F00001600C4880470C480047FEE7FEE7FEE73A
:10010000FEE7FEE7FEE70000100700200400000005
:100110001F00000018100240010000000000014014
:100120000000000071060008C100000830B50B4651
:10013000014600202022012409E00D46D5409D42C1
:1001400005D31D469540491B254695404019154647
:10015000521E002DF1DC30BD70B50024254600286C
:1001600001DA01244042002901DA01254942FFF762
:10017000DDFFAC4200D04042002C00D0494270BDAF
:1001800003460B439B0703D009E008C9121F08C0B0
:10019000042AFAD203E00B780370401C491C521E5B
:1001A000F9D27047D2B201E00270401C491EFBD266
:1001B00070470022F6E710B513460A460446194672
:1001C000FFF7F0FF204610BD421C0178401C0029BB
:1001D000FBD1801A704710B5002200E0521C835CEE
:1001E0008C5CA34201D1002BF8D1D8B2E1B2401A05
:1001F00010BD30B505460020034600E05B1C93426D
:1002000005D2EC5CC85C201A01D1002CF6D130BDBF
:10021000024670B54A40D30FDB0740002DD04A009C
:100220002AD0010E140E000212020919400A520AC5
:100230008418E50104465443000A120A2E04504370
:10024000A4194219200CC543AA18120C0125AD03AC
:10025000521C521912047F39240400D0521C10433E
:1002600001D44000491EC2B20C06C0092018401C2F
:100270004008802A02D003E0002070BD4008400002
:10028000002900DA0020184370BD70B502464A40CC
:10029000D50F40004A00ED0740085208002814D04E
:1002A000002A12D0C40DD30D41020120C005520214
:1002B000490A520AE41A091812187D34914201D3EE
:1002C000641C00E04900002C01DA002070BD00230E
:1002D000914201D3891A0343400849000028F7D10D
:1002E00000290AD0914202D10121C90705E09142BB
:1002F00001D2012101E00121C943E005C0184019E4
:1003000000F013F870BDC217C10F504010B540186F
:10031000CA079623002100F010F810BD10B5002286
:100320009623114600F009F810BD002904DA401C9C
:10033000490001D140084000704770B40024050C0A
:1003400005D11024000402D1002921D01124050E6A
:1003500001D100020834050F01D10001241D850FD1
:1003600001D18000A41C002801DB4000641C00298E
:1003700008D020252E1B0D46F540A14000D00121BC
:100380002943084301061B1B000ADB1D02D5002080
:1003900070BC7047DB05181880180029F8DA401C7B
:1003A0004900F5D170BC400840007047064C01255B
:1003B000064E05E0E36807CC2B430C3C984710340D
:1003C000B442F7D3FFF780FEA81F0008C81F00083B
:1003D000F0B50022012423460D6893401D409D4244
:1003E0002AD10D79012D01D0022D12D18768550037
:1003F0000326AE40B74387604E79AE4085682E43F2
:10040000866085889D43858085888B7993401D43D0
:100410008580066855000323AB409E4306600E7935
:100420000768AE403E430660C6689E43C660CB790F
:10043000AB40C5682B43C360521C102ACBD3F0BD20
:100440004B07DB0E9A40C90810B589000818016AED
:100450000F249C40A1430162016A1143016210BD57
:100460007047704730B5837801210278002B15D092
:1004700094080E4BA400E41823689207D50EFF22BF
:10048000AA40934342789207120EAA401A43226070
:100490000078C006C00E8140054804E0D006C00EBA
:1004A000814003488030016030BD000000E400E07E
:1004B00000E100E070470000044A0029516901D0C2
:1004C000014300E081435161704700000010024089
:1004D000044A0029D16901D0014300E08143D16180
:1004E0007047000000100240F8B5354D04466968B9
:1004F00000200C22334E114005D0042903D00829D6
:1005000003D00C2918D0266018E0696868680322B7
:100510008902D2030F0F1040BF1C002809D0E86ADF
:100520000107090F3046491CFFF700FE78432060A1
:1005300004E025487843FAE7244921606968244F9C
:100540000906090F7B5C21680A46DA4062606B6825
:100550005B055B0FFB5CDA40A2602B6BDB0501D413
:100560001C4B05E06B685B0401D4530800E0930862
:10057000E3602B6BDB0601D4666100E061612B6BED
:100580009B070ED02B6B9B079B0F012B0BD0296B6E
:100590008907890F022908D0296BC943890707D029
:1005A00007E0A26105E0A16103E00121C903FAE7C8
:1005B000A661E261296B090600D404486062F8BDB7
:1005C0000010024000127A0000093D00006CDC02BD
:1005D00016000020809FD500704700003CB5002227
:1005E0002048019200920168012319430160022111
:1005F0000524240305680D400095019D6D1C01959F
:10060000009D002D02D1019DA542F3D10468A407ED
:1006100026D50093144B1F221A604268426042683C
:10062000426042687F23DB039A4342604268212391
:10063000DB031A434260026801231B061A4302606F
:1006400002689201FCD542689208920042604268BA
:100650000A43426041680907890F0229FAD13CBD6B
:1006600000923CBD00100240002002407047000094
:1006700010B5144801680122114301604168124A13
:10068000114041600168114A114001600168012276
:1006900092049143016041683F22120491434160FA
:1006A000C16A09090901C162016BFF2254329143F9
:1006B0000163416B49084900416300218160FFF7F4
:1006C0008DFF10BD001002400CB8FFF8FFFFF6FED2
:1006D00010B50C4C0221204600F025F800280FD060
:1006E0000221204600F012F8074800238268C16802
:1006F000521C59418260C1604068002800D0804788
:1007000010BD00000004004078000020C9430182B1
:1007100070470029018802D00122114301E04908F5
:100720004900018070470246138A002092890B40DD
:100730000A40002B02D0002A00D001207047002A76
:10074000828901D00A4300E08A4382817047000019
:1007500010B50288144B984206D00124A407A04289
:1007600002D0124CA04203D17024A2434C882243F1
:100770000F4CA04203D00F4C22400C892243028030
:100780004A68C2620A880285984208D00A4A9042A2
:1007900005D00A4A904202D0094A904201D1897A92
:1007A00001860121818210BD002C0140000400401F
:1007B00000100040FFFC00000040014000440140E8
:1007C00000480140704770470029016802D00122AB
:1007D000114301E049084900016070470246D269AF
:1007E00000200A4200D001207047000070B5044686
:1007F00000688AB00D46002640084000206060680E
:10080000032109038843A9680143616020681A49EC
:10081000EA680840696811432A690243114321606C
:10082000A06803210902884369690143A160684601
:10083000FFF75AFE1148844201D1069E03E010489A
:10084000844200D1079E20682968000401D5700009
:1008500000E03046FFF76AFC2A6852088A4200D856
:10086000401C2168090404D50107064A490F1040BD
:100870000843A0810AB070BDF3E9FFFF00380140D2
:1008800000440040F0FF0000808CC005C00D7047A0
:10089000C905C90D0185704730B47446641E2578BA
:1008A000641CAB4200D21D46635D5B00E31830BCA4
:1008B000184702E008C8121F08C1002AFAD1704781
:1008C0007047002001E001C1121F002AFBD17047D0
:1008D0007CB50D4614460121FFF7EEFD01236A4663
:1008E000009413710020907103205071D3716946F8
:1008F0002846FFF76DFD7CBD08600920C0064860F2
:10090000886001204004C8600861486104200883B1
:1009100008204883022088830320C883012008849C
:10092000488470470FB410B588B010990F98149C84
:1009300008430121FFF7C0FD01210E98FFF7C8FD14
:1009400010A88089C2B210A801890C98FFF778FD21
:1009500010A8C089C2B210A841890D98FFF770FD98
:1009600010A880880690022168460177012141770E
:1009700000228277C17706A90C98FFF729FD10A8FD
:10098000C088069006A90D98FFF722FD2068009008
:1009900060680190A0680290E0680390606904902C
:1009A0002069059069460B98FFF720FF01210B98FD
:1009B000FFF70AFF08B010BC08BC04B0184710B518
:1009C0000446FFF765FF80212046FFF707FF002858
:1009D000F9D010BD01F0A4F8064801F09BF80649D3
:1009E00002220802FFF774FF01F0D0F801F016F9B7
:1009F000FCE70000D91A000800040048002A01D0D2
:100A0000816170470185704710B5012100F047F8FA
:100A100010BD0A78002A08D04B781B071B0F072B44
:100A200003D003681B781A4208D04030007FC0070B
:100A300002D14878C00601D5002070470020C0438D
:100A40007047000010B500F049FA002803D00249B1
:100A5000896B01F02FF810BD2800002070B5054605
:100A600000896989401A04B204E0696E2020884731
:100A7000641E24B2002CF8DC297A284600F06CF8B9
:100A800070BD10B500F02AFA002801D000F01AFC61
:100A900010BD10B50021C94300F001F810BD70B5BC
:100AA0000446481C04D000266289002A02D003E0D4
:100AB0000126F9E7012916D023899A4201D100289D
:100AC00011D000259A4201D1012901D0304612E00F
:100AD000521E5B1E628198B22081E1680D54012193
:100AE000204600F039F870BDE268431E5118425CA0
:100AF000401CCA5400B222896189521A8242F3DC36
:100B00002089401E2081002E05D16089401E608111
:100B1000616E082088472189E06845540A25655F91
:100B200005E0E068616E405D88476D1C2DB220894C
:100B3000A842F6DC616E2020884720896189401A2E
:100B4000401C05B204E0616E082088476D1E2DB27E
:100B5000002DF8DC70BD000070B50C46054603E0C2
:100B600004A1284600F0A6FF2146641EE4B2002935
:100B7000F6D170BD0820080010B50021C94300F06F
:100B80007BFA10BDF8B504460089002835D0E1682D
:100B9000002625460E544035287F1D4FC0071FD024
:100BA000204600F0ADFA204600F0ACFC66812681BC
:100BB000608E002821D017A1204600F07BFF002383
:100BC0002046626D216900F02CFD010003D0204613
:100BD00000F0EBFC11E02046B96900F06BFF0CE07F
:100BE00020688168E068FFF7F6FA002809D0796B81
:100BF000204600F05FFF26816681204600F03AFF24
:100C0000F8BD287F0121084328773968F0E7000004
:100C1000280000200D0A0000411C0A7800205C2AF0
:100C200001D01046704749786E290FD004DC302976
:100C3000F8D0622904D105E0722905D0742907D0C3
:100C400008467047082070470D2070470A207047FB
:100C500009207047F8B58446002300780A2601224F
:100C60001C461D462D2807D000216046081807782D
:100C70000021302F04D01AE00022D2430121F4E7F2
:100C80004178782907D0582905D0622905D0422912
:100C900003D002210BE0032109E0012107E00778DE
:100CA0002E2F04D14778002F01D0042110E00778BF
:100CB000401C002FF3D1012908D0022903D00329B9
:100CC00006D1102603E00826012301E002260223B4
:100CD0006344501C02D000201B181EE00120FBE7DB
:100CE0002E2805D00746303F092F03D8F8B20FE071
:100CF000012511E00746613F052F01D8573804E070
:100D00000746413F052F02D83738C0B200E0002027
:100D1000744304190A2045435B1C18780028DFD16E
:100D2000042913D1002D11D01046FFF7ECFA064626
:100D30002846FFF7F3FA05462046FFF7EFFA294663
:100D4000FFF7A3FA3146FFF763FAF8BD2046504398
:100D5000F8BDF8B504460878272809D02D2803D017
:100D60000246303A092A0AD80846FFF773FFF8BD51
:100D70004A78002AF4D00846FFF74EFFF8BD002657
:100D8000242807D00028F9D000270D460C46222839
:100D900011D01BE04A78002AF6D000232046491CD7
:100DA000626D00F03EFC010003D0204600F0ACF87C
:100DB000F8BD3046F8BD6C1C254607E05C280BD01A
:100DC00022280FD0E8557F1CBFB2641C2078002871
:100DD000F4D1EE552846F8BD601EFFF71DFFE8551B
:100DE000641CF0E7EE55EEE7FFB58BB00C461546F8
:100DF000202103A8FFF7DDF9A0786E1E0007000F81
:100E0000B04201DD054600E06D1E00270BE0B90091
:100E10000E980091081841680B98FFF79AFF009907
:100E200003AA50507F1CB742F1DB2B00FFF734FDC3
:100E30000805090D12171C232C35A06880470FB038
:100E4000F0BDA16803988847F9E7A2680499039860
:100E50009047F4E703AB07CBA3689847EFE703ADF0
:100E60000FCDA468A047EAE70798009003AD0FCD27
:100E7000A468A047E3E7089907980191009003ADA3
:100E80000FCDA468A047DAE707AB07CB6B4607C3D3
:100E900003AD0FCDA468A047D1E70020C043CEE743
:100EA000C068704700B500210B4B30225A54491CD2
:100EB000C9B20929FAD341780907090F012903D9D1
:100EC000062901D9072901D8406800BD40680249B8
:100ED00000F065FD004800BD9C000020094900208D
:100EE00082008A58002A06D04032127F920702D52B
:100EF000800008587047401C00B20528F0DB002035
:100F0000704700008800002000B54A7800201207D2
:100F1000120F921E1300FFF7BFFC0504070B0E0E05
:100F200006008868006800BD89680020085E00BD72
:100F30008868007800BD886800BD0000F3B583B004
:100F400005460498002850D0686B18240027010437
:100F5000090E03D00024FF27FF430AE00102090E17
:100F600002D00824294F04E0000E02D01024FF27ED
:100F70003F06686D0190002628464030029039E017
:100F8000019831010818009040780007000F0828E8
:100F90002DD128460099FFF73CFD002827D1009865
:100FA000696B406802463A408A4220D1FF231A46C4
:100FB000A2401040049AA240904218D11143002050
:100FC00069630490002C06D00098214640680839D7
:100FD0008B4018420BD10198310108188168002913
:100FE00001D0284688470020686305B0F0BD761C14
:100FF000029836B2008BB042C2DC04980028F4D0CC
:101000000146284600F074FAEFE700000000FFFFF9
:1010100070B50D460346FFF761FF040023D0012B96
:1010200022D020DD626D0023696800F0FAFA0546DF
:101030000F48C16A204600F03DFD2846FFF732FF09
:101040000146204600F036FD0AA1204600F032FDA0
:101050002846FFF725FF0146204600F02BFD05A19D
:10106000204600F027FD70BD00F02CF970BD000097
:10107000280000200D0A000070B504460026403408
:101080000546002913DD1023E35E581E2082A18946
:10109000E089814201D90A4600E002465242934269
:1010A0000FDC814200D908464042208209E0002935
:1010B00006DA208A401C00B22082002801DD268248
:1010C00070BD2846FFF7CAFC1020205E002814D00F
:1010D000E18908180521401DFFF73EF888004019F6
:1010E000816BE86800F0AEFB28810028E8D06881B9
:1010F0002846E96800F0DEFC70BD2E816E8170BD6F
:1011000070B504460026403405462682A089002892
:101110000BD0E089E968002800D105208000401943
:10112000406BFFF758F8002817D0E089E968800085
:101130004019806B00F086FB002802D0E089401C3B
:10114000E081A089401C80B2A081052801D905203A
:10115000A081E089052800D3E68170BD70B50E46F8
:10116000002101810546418140352982A981E9811B
:1011700004460160287F0121084328770621104694
:10118000E660FEF7D3FF20860020411C228E8000FF
:101190004A4392190019826308B20528F5DB114809
:1011A00011496065081A0003000C28830F490020CC
:1011B00082008A58002A11D0401C00B20528F7DBB3
:1011C00000230BA12046626D00F02BFA0146204659
:1011D00000F05EFA204600F04DFC70BD80000C501F
:1011E000EEE70000C81F0008B820000888000020B3
:1011F0004D6963726F5368656C6C000070B504468E
:10120000228E0089521E90420CDB294841682046FC
:1012100000F050FC204600F02DFC2046E16800F074
:1012200049FC70BD6289002382420DD1421CE568F1
:10123000228129542289E06883546089401C60819E
:101240000846616E884770BD8242FCD2801A00B2A7
:1012500006E06589E2685519421EAE5C465510B23B
:101260000028F6DC6089E568421C628129542089E7
:10127000E168401C80B220810B546089401E05B299
:1012800005E0E068616E405D88476D1C2DB22089E5
:10129000A842F6DC618980B2401A05B204E0616EB2
:1012A000082088476D1E2DB2002DF8DC70BD0000AF
:1012B0002800002010B5FFF711FE002801D000F033
:1012C0009FF810BDF8B50546466D10488168284660
:1012D00000F0F0FB00242F46403713E02001801976
:1012E000009040780007000F012809D8284600998F
:1012F000FFF78FFB002803D12846009900F008F87B
:10130000641C24B2388BA042E8DCF8BD2800002021
:10131000F8B504460E460846FFF7C4FD01462046D0
:1013200000F0C8FB1621081A05B2002D00DC0425C8
:10133000616E202088476D1E2DB2002DF8D1707887
:101340000107090F2B48012901D8C16B0CE00629C0
:1013500001D8016C08E0072901D8416C04E0082994
:1013600001D8816C00E0C16C204600F0A3FB22A1F3
:10137000204600F09FFB0725012730783946A94019
:10138000084201D0782000E02D20616E88476D1E54
:101390006DB2002DF1DA18A1204600F08BFB30462B
:1013A000FFF77EFD0546606E002600281CD012E087
:1013B000616E6D1C8847761CB6B2242E0BD36878FC
:1013C000002808D0616E2E208847616E2E20884745
:1013D000616E2E2088472878002805D00D2803D07C
:1013E0000A2801D0242EE3D304A1204600F062FB9A
:1013F000F8BD000028000020202000000D0A000099
:10140000F8B50546466D11484169284600F052FB83
:1014100000242F46403715E02001801900904078C5
:101420000007000F07280BD9082809D8284600997B
:10143000FFF7EFFA002803D128460099FFF768FF6D
:10144000641C24B2388BA042E6DCF8BD28000020E2
:10145000F8B50546466D11480169284600F02AFB9B
:1014600000242F46403715E0200180190090407875
:101470000007000F06280BD9072809D8284600992D
:10148000FFF7C7FA002803D128460099FFF740FF6D
:10149000641C24B2388BA042E6DCF8BD2800002092
:1014A000F8B50546466D1148C168284600F002FBB4
:1014B00000242F46403714E0200180190090407826
:1014C0000007000F801E042809D828460099FFF75E
:1014D000A0FA002803D128460099FFF719FF641CE1
:1014E00024B2388BA042E7DCF8BD000028000020C1
:1014F00010B502464032137FFB2423401377FFF7D9
:101500007DFE10BD70B5002301241D46438619469B
:1015100029E0002B05D1C268565C202E1FD0002E7A
:101520001DD0C268565C222E02D1002B03D00023AE
:10153000012C02D009E00123FAE75418428E9600EC
:101540003618521C428634610024C668725C5C2ADC
:1015500007D14A1CB65C002E03D091B201E055546D
:101560000124491C89B202898A42D2D870BDF8B5DB
:1015700000240646274614E0A00085192869017852
:10158000222903D107702869401C2861FEF71CFE40
:1015900080B22969401E0A5C222A00D10F54641CC3
:1015A000A4B2708EA042E7D8F8BDF8B5054604464F
:1015B00040350E46287F0221084328777078274659
:1015C0000107103700290BD00007000F01280FD0AA
:1015D000811E04291AD83146204600F0DBF81BE0B2
:1015E0002046FFF7C4FFB268608E3946904705E099
:1015F000628E3B4631462046FFF7F6FB0146707887
:10160000800609D4204600F0F5F905E0072803D14B
:101610003146204600F03CF8287FFD21084028771D
:10162000F8BDFFB50646716D4030008B511A0909AF
:10163000401A81B0154687B200241CE020014019F1
:10164000009040780007000F082812D0304600991B
:10165000FFF7DFF900280CD10098FFF723FC0146C3
:10166000049800280CD002460298FEF7C2FD00281C
:101670000AD0641CA4B2BC42E0D3002005B0F0BD87
:101680000298FEF7A8FDF2E720014019F6E70000F6
:1016900070B5054601602C46886840340E46002827
:1016A0001DD0FEF791FD002819D0688E012805D0C5
:1016B0006969B068FEF78FFD002810D0207F4008D0
:1016C00040002077084E2846B16B00F0F3F9207FE8
:1016D000C00703D02846316800F0ECF970BD207FC8
:1016E00001210843EDE7000028000020F3B581B098
:1016F0000F46FFF7F3FB051E16D000236A6D019914
:10170000FFF78FFF0F4E04000FD060780007000F27
:10171000801E05280BD32846019900F0CBF9716A89
:10172000284600F0C7F90020FEBDB16AF8E73A4646
:101730002146284600F008F821462846FFF7E4FB3A
:10174000FEBD00002800002070B5054648780C4614
:101750000107090F891E0E480B00FFF79DF80504CD
:10176000070A0D0F1300A06802600BE0A06802805A
:1017700008E0A068027005E0C16900E0016A28463F
:1017800000F098F92146284600F004F870BD0000EA
:1017900028000020FEB50C4606461AA207CA6B4672
:1017A00007C321463046FFF7AFFB05463046616868
:1017B00000F080F916A1304600F07CF96946284611
:1017C00000F0CCF80B21081A6C460119304600F0E5
:1017D00071F910A1304600F06DF9002130206054FD
:1017E000491C09B20B29FADB6946284600F0D7F8F4
:1017F0006946304600F05EF908A1304600F05AF91B
:10180000FEBD00003030303030303030303030000D
:10181000203D20002C203078000000000D0A000040
:1018200030B504460020024605E0AB4209D1401C19
:10183000521C80B292B2A35C002B02D08D5C002DB2
:10184000F3D130BD0246002002E01354401C80B2A8
:101850000B5C002BF9D1002111547047F0B5044600
:1018600085B0008E00900020054603902089002856
:1018700008D00021E2680E46115420464030676DC2
:1018800002903EE02046FFF71DFD204600F0F2F8F2
:1018900005B0F0BD3001C11920460191FFF7B9F83C
:1018A00000282BD10198FFF7FDFA0146E068FFF709
:1018B000B7FF2189884221D1002D1BD0012D03D1F2
:1018C00025A1204600F0F6F803980001C119204632
:1018D0000391FFF71DFD0198FFF7E4FA01900398CB
:1018E000FFF7E0FA0199FFF79BFF0099814200D8CA
:1018F00008460090B0B26D1CADB20390761C029801
:1019000036B2008BB042C5DC002DC1D0012D02D112
:101910002046FFF7A3F803980001C0190646FFF719
:10192000C1FA0146E068FFF78DFF2081012D08D93B
:1019300031462046FFF7ECFC204600F09BF800986B
:1019400020812289E1680020885420896081204616
:10195000E16800F0AFF89BE70D0A000070B50B24BA
:101960000E460546002800DA68420021F17206E0C2
:101970000A21FEF7F1FB641EE4B230313155002834
:10198000F6D1002D01DA2D2002E0002D03D1302008
:10199000641EE4B230550B20001B40B270BD08221B
:1019A00000230B720AE003071B0F092B01D95733E1
:1019B00000E03033521ED2B28B5400090028F2D11D
:1019C0000820801A40B2704710B50121FFF754FB80
:1019D00010BD10B5FFF782FA002801D0FFF738FDDF
:1019E00010BD10B5FFF77AFA002801D0FFF758FDB7
:1019F00010BD0000FEB50D46064615A207CA6B468F
:101A000007C316A1304600F055F869462846FFF78F
:101A1000A5FF0B21081A6C460119304600F04AF860
:101A200011A1304600F046F800223020A054521C8C
:101A300012B20B2AFADB69462846FFF7B0FF694667
:101A4000304600F037F80AA1304600F033F8FEBD0A
:101A500030303030303030303030300052657475D6
:101A6000726E3A20000000002C2030780000000048
:101A70000D0A000010B504464030007FC0070AD0B0
:101A800008A1204600F016F820684168204600F0C2
:101A900011F805A101E00648016B204600F00AF8A4
:101AA00010BD00000D0A00003A2F242000000000A5
:101AB0002800002070B50646406E00240D46002820
:101AC00009D004E0716E6D1C8847641CA4B22878AC
:101AD0000028F7D1204670BD10B50C497D23088839
:101AE0001B01401C82B20A480A809A4202D9002295
:101AF0000A8005E07D21C9008A4201D9012200E067
:101B000000220221FEF77AFF10BD00001400002021
:101B10000004004801494860704700007800002038
:101B20007FB5174815490068FEF700FB154D401EAC
:101B3000288001210220FEF7CBFC102168460173AA
:101B4000002444730121817303A8FEF78BFC7D20E0
:101B5000C0000190298868460180048144800A4CB5
:101B600069462046FEF7F4FD012202212046FEF7D9
:101B7000E6FD01212046FEF7CCFD7FBD40420F006F
:101B800000000020780000200004004010B5154C33
:101B900098B00EA92046FEF7AFFEE12040020021DA
:101BA00007900C200C90089109910A910B9108A8BC
:101BB000017507A80690182211A96846FEF7E0FAF9
:101BC00020460EAC0ECCFEF7ADFE08480649416635
:101BD000074901660122014652026831FFF7BEFA49
:101BE00018B010BD00440040451C0008A8000020AB
:101BF000F51B000870B504460020074D2070202119
:101C00002846FEF7EBFD0128F9D12846FEF73CFEF9
:101C10002070002070BD00000044004010B5074C4B
:101C200020212046FEF7DAFD0128F9D12046FEF7F3
:101C30002BFEC1B20248FFF781F910BD00440040FD
:101C4000A800002010B501460148FEF7B8FE10BDFF
:101C500000440040736574566172007365742076A9
:101C6000617200757000646F776E0074616200626B
:101C700061636B73706163650064656C65746500B6
:101C800064656C65746500656E74657200656E747C
:101C900065720068656C700073686F7720636F6DA4
:101CA0006D616E6420696E666F0D0A68656C7020E8
:101CB0005B636D645D007573657273006C6973744A
:101CC00020616C6C207573657200636D6473006CC9
:101CD00069737420616C6C20636D6400766172734B
:101CE000006C69737420616C6C20766172006B65A6
:101CF0007973006C69737420616C6C206B6579007A
:101D0000636C65617200636C65617220636F6E73F2
:101D10006F6C65000D0A436F6D6D616E64204C69D8
:101D200073743A0D0A0000000D0A566172204C6966
:101D300073743A0D0A0000000D0A55736572204C49
:101D40006973743A0D0A00000D0A4B6579204C69DD
:101D500073743A0D0A000000436F6D6D616E64206C
:101D60006E6F7420466F756E640D0A000D0A576120
:101D7000726E696E673A20436F6D6D616E642069A3
:101D80007320746F6F206C6F6E670D0A0000000087
:101D900063616E2774207365742076616C0D0A0090
:101DA000206973206E6F742061207661720D0A00C5
:101DB00063616E27742073657420706F696E74653B
:101DC000720D0A000D0A205F2020202020202020F4
:101DD000205F2020205F2020202020202020202085
:101DE00020202020202020205F20202020202020B4
:101DF0002020205F205F200D0A7C207C20202020D6
:101E00005F5F5F7C207C5F7C207C5F205F5F5F206A
:101E10005F205F5F2020205F5F5F7C207C5F5F2012
:101E200020205F5F5F7C207C207C0D0A7C207C2052
:101E300020202F205F205C205F5F7C205F5F2F20B1
:101E40005F205C20275F5F7C202F205F5F7C202746
:101E50005F205C202F205F205C207C207C0D0A7C92
:101E6000207C5F5F7C20205F5F2F207C5F7C207C5C
:101E70007C20205F5F2F207C202020205C5F5F2063
:101E80005C207C207C207C20205F5F2F207C207CBD
:101E90000D0A7C5F5F5F5F5F5C5F5F5F7C5C5F5FC5
:101EA0007C5C5F5F5C5F5F5F7C5F7C202020207CD0
:101EB0005F5F5F2F5F7C207C5F7C5C5F5F5F7C5F30
:101EC0007C5F7C0D0A0D0A4275696C643A20202003
:101ED000202020204E6F76203130203230323120C9
:101EE00031393A34303A30380D0A56657273696FB9
:101EF0006E3A2020202020332E302E310D0A436FE1
:101F0000707972696768743A20202028632920322A
:101F1000303230204C65747465720D0A0000000088
:101F20000D0A7061737377726F64206572726F72DD
:101F30000D0A0000566172206E6F7420466F756E38
:101F4000740D0A00434D4420000000005641522009
:101F5000000000004B45592000000000636F6D6DCC
:101F6000616E642068656C70206F66200000000060
:101F70000D0A506C6561736520696E707574207010
:101F8000617373776F72643A000000004E4F4E45E4
:101F9000000000001B5B324A1B5B31480000000060
:101FA0005553455200000000B820000800000020F2
:101FB00088000000B20800084021000888000020C6
:101FC00088060000C208000800210000541C000818
:101FD000ED1600085B1C00080008000000415B1BB8
:101FE000C9190008631C00080008000000425B1BC0
:101FF000790B0008661C00080008000000000009BA
:102000005D1800086B1C00080018000000000008A4
:10201000090A00086F1C0008001800000000007F7B
:10202000930A0008791C0008001800007E335B1B2F
:10203000930A0008801C0008001800000000000A35
:10204000850B0008871C0008001800000000000D28
:10205000850B00088D1C000800200000931C000860
:1020600011100008981C000800210000B61C000890
:10207000D3190008BC1C000800210000CA1C00087D
:10208000830A0008CF1C000800210000DC1C0008A7
:10209000E3190008E11C000800210000EE1C000804
:1020A000B5120008F31C000800210000001D000804
:1020B000450A0008061D0008006CDC020000000054
:1020C00000000000010203040607080900000000E8
:1020D00000000102030401020304060708090000CE
:1020E000C41D00086C1D0008141D0008281D0008F0
:1020F000381D0008481D0008581D0008B01D0008C4
:10210000901D0008A01D0008341F00085C1F000877
:10211000701F0008201F0008941F0008441F0008BB
:102120004C1F0008A01F0008541F00088C1F000847
:10213000000000000000000000000000000000009F
:04000005080000C12E
:00000001FF
