:020000040800F2
:10000000D0080020D5000008B9090008B709000889
:1000100000000000000000000000000000000000E0
:10002000000000000000000000000000610B00085C
:1000300000000000000000000D0A0008F50B000899
:100040000501000805010008050100080501000878
:10005000050100080501000805010008A5070008C2
:100060000000000005010008050100080501000866
:100070000501000805010008050100080000000056
:10008000590C0008050100080000000005010008E7
:100090000501000805010008050100080501000828
:1000A000050100080501000805010008E10D000830
:1000B000E30D00080000000000000000050100083A
:1000C0000348854600F050FA00480047BD25000867
:1000D000D00800200C4880F308880C480168090EFD
:1000E0000B4A914205D10B480B4901600B480C4962
:1000F00001600C4880470C480047FEE7FEE7FEE73A
:10010000FEE7FEE7FEE70000D00800200400000044
:100110001F00000018100240010000000000014014
:1001200000000000F90B0008C100000830B50B46C4
:10013000014600202022012409E00D46D5409D42C1
:1001400005D31D469540491B254695404019154647
:10015000521E002DF1DC30BD03460B439B0703D03C
:1001600009E008C9121F08C0042AFAD203E00B787C
:100170000370401C491C521EF9D27047F0B51FB4E1
:100180000646002082B005464024019100901BE005
:10019000019922460F46304600F008FA049A059B62
:1001A000801A994110D310461946224600F0EEF904
:1001B000361A8F410197224601200021009F00F04E
:1001C000E5F938184D4100902046641E0028DFDC18
:1001D000019B00982946324607B0F0BDF0B50746AE
:1001E0000846584087B0C00F049048000E4659009A
:1001F00040084908BC1A884105D2384631461E4697
:1002000017460B4602465800400810434CD0300DAC
:10021000039040055900400D490D0590401A029089
:10022000402872DA18030121000B090508430190E8
:1002300004980092002805D001995242002088417C
:1002400000920190029840210A1A0199009800F04A
:100250009DF905460C466B4607CB00F0B8F9C0196E
:100260007141039A0E0D0023D71756401A467A4063
:10027000164344D0049A002A2DD0029A012A039AE8
:1002800015DC1205C01A914101263605001C71418A
:10029000D20F059ED2070093019202962A4623466A
:1002A00000F0B5F907B0F0BD38463146FAE716055B
:1002B000224A0F46B218C01AB74101210905001C95
:1002C0004F4100187F41114618187941E20F104341
:1002D0006D19644113E0E2076D0815436408C20715
:1002E0001443039A01261205C01A91413605001CD9
:1002F0007141CE07400830434908C01851412A4691
:10030000234600F077F9CDE7FFE70498012240008B
:10031000C117121A00238B4104983146C417381AAA
:10032000A141EEE730B40124E407634030BC55E757
:1003300030B40124E407614030BC4FE70000E0FF27
:10034000F0B51FB488B00B9909980024484009996A
:10035000C00F490049080991C0070B990090490056
:1003600049080B9109990898A64608431CD00B9997
:100370000A98084318D0099801244000420D48000B
:10038000410D099824050003000B204309900B98A8
:100390000003000B20430B9050181C49401800220A
:1003A00001901446104605E0002001460DB0F0BD56
:1003B000032801DA034600E003239C46C11A0AAE73
:1003C0000AE05F0008ADED5B4F00F75B7D4300275F
:1003D000AA187C41491C5B1E6145F2DD410004AB5B
:1003E0005A522104120C0A43240C401C0828DFDB5B
:1003F000019802900099704601910090059B049A23
:100400000799069800F003F9D0E700000DFCFFFF04
:10041000F0B50C465C4085B0E40FE40703944C0053
:100420000026640859009446490802460296224371
:1004300021D062460A431ED06200570D4A000E03C7
:100440002303550D012402462C492405781B1B0B60
:10045000360B401823432643614600901C46501A31
:10046000B44103D30098401C009002E09218009819
:100470005B41002803DA0020014605B0F0BD0020F2
:10048000012109050746864611E064461D46141BF6
:10049000B54106D36546521BB341744607430C432E
:1004A000A646CD0740084908284392185B410546F7
:1004B0000D43EAD11046184313D060461946504008
:1004C0007140084306D06046101AB34106D201229B
:1004D000002306E000220123DB0702E00122D243D1
:1004E0005310009874460105381C6141029C039D1D
:1004F0000019694100F07EF8BFE70000FD0300002D
:100500004A0009030123090B1B0519430A4B10B5C7
:10051000520D9A4202DA0020014610BD064B3433D8
:100520009A4203DC9A1A00F041F810BD034BD2182E
:1005300000F02CF810BD0000FF030000CDFBFFFF12
:1005400010B5002904DB0124E40740428C41214618
:10055000002B04DB1C460123DB075242A3419942D6
:1005600000D1904210BD0000064C0125064E05E06A
:10057000E36807CC2B430C3C98471034B442F7D3C4
:10058000FFF7A2FD202D0008402D000810B5202AFD
:1005900004DB0146203A9140002010BD9140202309
:1005A0009C1A0346E3401943904010BD10B5202A21
:1005B00004DB0846203AD040002110BD0B46D34052
:1005C000D0402024A21A91400843194610BD10B50E
:1005D000202A06DBCB170846203A1041C1170B43EF
:1005E00006E00B461341D0402024A21A9140084354
:1005F000194610BD10B5002B08DA0024401C6141DB
:1006000092185B411A4301D14008400010BDF0B57B
:100610001FB482B005460C0003D0084600F0F8FC79
:1006200002E000F0F5FC203002460090214628460A
:10063000FFF7ACFF049B059A04460F46184311438D
:10064000084314D0184610431BD0009840210A1AC2
:1006500018460599FFF7AAFF05460E46009A059928
:100660000498FFF793FF084305D0012004E02046DB
:10067000394607B0F0BD0020C11705430E432C4397
:10068000374300990E986305401A7905E40A002261
:100690000C43FD0A0A3002D500200146E9E70105B6
:1006A000101969410C9C0D9D00196941FFF7A2FFCB
:1006B000DFE7836A0B4383624261704700298168E8
:1006C00001D0012200E00222114381607047000046
:1006D000064910B5884208D144150121204600F092
:1006E000BBF90021204600F0B7F910BD00240140FD
:1006F000826800210123DB071A4382600F231B035A
:100700008268491CD20FD207994201D0002AF7D142
:100710008168002901DB006C704700207047006C85
:1007200080B2704702460020CB0104D592680123B5
:100730001B069A4300E012680A4200D0012070476D
:1007400030B5C368084A8C6813400A680D792243A3
:10075000CC686D032C4322430C69496922430A4348
:100760001A43C26030BD000003D2FFFF816804223B
:100770001143816070470021016001718160C16097
:1007800001614161704710B5002806D0012805D0ED
:10079000022802D1084600F0E5FB10BD084600F033
:1007A0009BFB10BD10B5FF240134204600F014F867
:1007B000002807D0204600F009F803480068002808
:1007C00000D0804710BD000084000020014948612E
:1007D0007047000000040140034A014652690020AE
:1007E0000A4200D001207047000401400149C8605E
:1007F0007047000000200240F0B50646002000F0DF
:100800003FF8BFF36F8F0B273F04384600F07AF8AC
:100810000346042810D10B4C20690225284320618F
:1008200066612069402108432061384600F06AF87B
:1008300003462069A8432061012000F021F81846F2
:10084000F0BD00000020024008490420CA68D20719
:1008500001D001207047CA68D20601D50220704736
:10086000C9684907FBD503207047000000200240FB
:100870000248016980221143016170470020024053
:10088000044910220028086801D0104300E090437A
:100890000860704700200240F8B5064600200D466B
:1008A0000090FFF7EDFFBFF36F8F0B273F04384633
:1008B00000F028F8034604280DD1094C20690121D5
:1008C000084320613560384600F01CF80346206973
:1008D0004008400020610120FFF7D2FF1846F8BD14
:1008E0000020024004480169090603D5034941601C
:1008F0000349416070470000002002402301674522
:10090000AB89EFCD00B50346FFF79EFF02E0FFF78E
:100910009BFF5B1E012803D0002B00D1052000BDEA
:10092000002BF4D1FAE7F0B50022012423460D682C
:1009300093401D409D422AD10D79012D01D0022DF9
:1009400012D1876855000326AE40B74387604E79C1
:10095000AE4085682E43866085889D438580858866
:100960008B7993401D438580066855000323AB4077
:100970009E4306600E790768AE403E430660C66837
:100980009E43C660CB79AB40C5682B43C360521C05
:10099000102ACBD3F0BD4B07DB0E9A40C90810B527
:1009A00089000818016A0F249C40A1430162016A72
:1009B0001143016210BD70477047000030B5837865
:1009C00001210278002B15D094080E4BA400E418E6
:1009D00023689207D50EFF22AA40934342789207DC
:1009E000120EAA401A4322600078C006C00E814051
:1009F000054804E0D006C00E814003488030016005
:100A000030BD000000E400E000E100E070470000BD
:100A1000044A0029516901D0014300E0814351613A
:100A20007047000000100240044A0029D16901D03B
:100A3000014300E08143D161704700000010024093
:100A4000044A0029916901D0014300E0814391618A
:100A50007047000000100240044A0029D16801D00C
:100A6000014300E08143D160704700000010024064
:100A7000F8B5354D0446696800200C22334E11400C
:100A800005D0042903D0082903D00C2918D02660EA
:100A900018E06968686803228902D2030F0F1040CA
:100AA000BF1C002809D0E86A0107090F3046491C1D
:100AB000FFF73CFB7843206004E025487843FAE7E1
:100AC000244921606968244F0906090F7B5C21686D
:100AD0000A46DA4062606B685B055B0FFB5CDA40DC
:100AE000A2602B6BDB0501D41C4B05E06B685B043B
:100AF00001D4530800E09308E3602B6BDB0601D4BC
:100B0000666100E061612B6B9B070ED02B6B9B072E
:100B10009B0F012B0BD0296B8907890F022908D065
:100B2000296BC943890707D007E0A26105E0A161ED
:100B300003E00121C903FAE7A661E261296B090616
:100B400000D404486062F8BD0010024000127A0030
:100B500000093D00006CDC0274000020809FD5007D
:100B6000704700003CB500222048019200920168C5
:100B700001231943016002210524240305680D4067
:100B80000095019D6D1C0195009D002D02D1019DD8
:100B9000A542F3D10468A40726D50093144B1F2265
:100BA0001A60426842604268426042687F23DB0309
:100BB0009A43426042682123DB031A434260026881
:100BC00001231B061A43026002689201FCD54268A9
:100BD00092089200426042680A43426041680907F5
:100BE000890F0229FAD13CBD00923CBD00100240A1
:100BF000002002407047000010B51448016801222F
:100C0000114301604168124A114041600168114A74
:100C10001140016001680122920491430160416822
:100C20003F22120491434160C16A09090901C1626E
:100C3000016BFF22543291430163416B4908490023
:100C4000416300218160FFF78DFF10BD001002405D
:100C50000CB8FFF8FFFFF6FE10B50C4C0221204641
:100C600000F031F800280FD00221204600F012F8E1
:100C7000074800238268C168521C59418260C160E4
:100C80004068002800D0804710BD000000040040EC
:100C900090000020C943018270470029018802D0DA
:100CA0000122114301E049084900018070474030AA
:100CB0000029818803D00122D203114301E04904B5
:100CC000490C818070470246138A002092890B40AC
:100CD0000A40002B02D0002A00D001207047002AD1
:100CE000828901D00A4300E08A4382817047000074
:100CF00030B5028C520852000284038C8288048B27
:100D00007025AC43A4080D88A40025430224A34306
:100D10008C891C434B8823430F4CA04208D00F4CB6
:100D2000A04205D00E4CA04202D00E4CA0420DD1E4
:100D30000824A343CC891C4304239C438B8823436E
:100D4000094C22400C8A14434A8A2243828005833C
:100D500089684163038430BD002C0140004001409C
:100D60000044014000480140FFFC000010B502882B
:100D7000144B984206D00124A407A04202D0124C82
:100D8000A04203D17024A2434C8822430F4CA042BE
:100D900003D00F4C22400C89224302804A68C26271
:100DA0000A880285984208D00A4A904205D00A4A29
:100DB000904202D0094A904201D1897A01860121EC
:100DC000818210BD002C0140000400400010004052
:100DD000FFFC000000400140004401400048014089
:100DE00070477047016270470029016802D00122F4
:100DF000114301E049084900016070470246D26989
:100E000000200A4200D00120704710B50B041C0ED0
:100E100001238B40022C02D0032C02D002E0001DE3
:100E200000E008300168002A01D0194300E099432E
:100E3000016010BD70B5044600688AB00D460026FA
:100E40004008400020606068032109038843A968C6
:100E50000143616020681A49EA68084069681143E3
:100E60002A69024311432160A068032109028843D3
:100E700069690143A1606846FFF7FAFD11488442A1
:100E800001D1069E03E01048844200D1079E2068ED
:100E90002968000401D5700000E03046FFF746F9EC
:100EA0002A6852088A4200D8401C2168090404D5E7
:100EB0000107064A490F10400843A0810AB070BDDF
:100EC000F3E9FFFF0038014000440040F0FF00005C
:100ED000C905C90D0185704770B50546012188B067
:100EE0004804FFF795FD01218803FFF7A9FD0921BB
:100EF000CE0601223046FFF74EFD01220A21304680
:100F0000FFF749FD0320400206900220694608775A
:100F10000320487700248C770120C87706A9304643
:100F2000FFF701FD009501940294039405940C20B1
:100F30000A4C049069462046FFF77CFF01212046B9
:100F4000FFF752FF40212046FFF74CFF01220449E2
:100F50002046FFF75AFF08B070BD0000003801407E
:100F600005010500F0B5012106464C0489B0204674
:100F7000FFF74EFD01212046FFF756FD0927FF062A
:100F8000012202213846FFF706FD012203213846DF
:100F9000FFF701FD0C250221684606950177032124
:100FA0004177002484770121C17706A93846FFF7ED
:100FB000BAFC009601940294039405940A4C694685
:100FC00004952046FFF736FF01212046FFF70CFF6E
:100FD00040212046FFF706FF012204492046FFF783
:100FE00014FF09B0F0BD00000044004005010500F9
:100FF0000FB410B503A9044B044A029800F0E8F8B6
:1010000010BC08BC04B01847A71E000870000020E0
:101010002021020C01D010211046020A01D01046F6
:101020000839020901D01046091F820801D0104674
:10103000891E420801D0881E7047081A704702E0D6
:1010400008C8121F08C1002AFAD170477047002053
:1010500001E001C1121F002AFBD17047F0B51FB497
:1010600086B00998089A030D0021024314D0514814
:10107000514A1818504305141198012810981AD095
:10108000281A401C00264D4F4D49009601910490AE
:10109000002812DA444211E01198012449A30128E2
:1010A00001D11098C1430698119A84600360C26010
:1010B00041600BB0F0BD4042E4E70446210500204A
:1010C0003F4A001C51410391029012E0E00707D013
:1010D00032463B4601990098FFF732F901910090A2
:1010E00032463B4610461946FFF72AF906460F4698
:1010F0006410002CEAD10498039B0028029A0999F5
:10110000089806DAFFF71CF9019B009AFFF718F917
:1011100005E0FFF77DF9019B009AFFF779F9044696
:101120000E460022284BFFF70BFA03D80020C043DD
:10113000014607E00022254B20463146FFF74EF8D6
:10114000FFF7DEF9102409E0002C0ADB0A22002355
:10115000FFF714F8079B30321A55641E02460A4303
:10116000F2D11122641C079B121B1C19119B012B2D
:1011700003D0012308430ED10AE0084304D0112014
:1011800010900020119077E71098151A6D1E0BE053
:101190001098824202DD00236D1C03E0824201DAD6
:1011A00000236D1E002BEED0069811998260C1605D
:1011B00030C07EE701FCFFFF104D0000000014402E
:1011C0000000F03F300000000000F0430000E03F6E
:1011D000FFB597B00646002518E2252877D10024F0
:1011E0002746FD49049400E00443761C3278012030
:1011F000203A90400842F7D130782A280ED00222B7
:10120000307801463039092916D804990A23594300
:10121000303940181443761C0490F1E7189802C83E
:1012200004911890002904DA012040030443484245
:10123000049002200443761C30782E2814D1042018
:1012400004437078761C2A2809D11898761C80C827
:10125000189009E00A214F43303FC719761C3078B7
:10126000014630390929F5D930786C2810D006DCD0
:101270004C281AD068280ED06A2817D104E07428A8
:1012800013D07A2812D110E00120400504430CE06D
:101290000121090501E0032109050C437178814210
:1012A00003D1012000052418761C761C307811909B
:1012B00066280BD013DC58287DD009DC00287BD0B1
:1012C0004528F6D04628F4D047281AD1A5E118E0E1
:1012D000632835D0642870D0652812D19DE170282C
:1012E0006CD008DC6728F1D069287BD06E280DD03F
:1012F0006F2806D1BAE073282ED0752871D07828CF
:1013000059D01A9A199990476D1C7EE16002400FDE
:10131000022809D003280DD00428189801680DD0A0
:101320000D60001D189070E11898EA1701680D60B3
:101330004A60F6E7189801680D80F2E70D70F0E753
:1013400018986A4601781172001D1890002050729A
:1013500002A80090012005E0189802C8189000200B
:101360000091C04361070DD5002101E00199491C9E
:101370000191B94212DA8142F8DB009A515C0029EE
:10138000F4D10BE0002101E00199491C0191814257
:10139000FADB019A0099895C0029F5D1019904983A
:1013A0001A9B471A21463846199A00F097FA019974
:1013B000401945180BE04FE02CE113E04EE0009897
:1013C00000990078491C00911A9A19999047019840
:1013D000401E0190401CF2D1214638461A9B199AB2
:1013E00010E137E00A200021009001916002410FD6
:1013F000022907D0189A01CA1892C21794460329E5
:1014000008D00AE01898C01DC108C90005C9189184
:10141000944607E000B2C2179446042902D140B2B4
:10142000C1178C4600226146944506DA0A4600211F
:10143000404291418C462D2102E0210504D52B210B
:101440006A461173012103E0E10701D02021F7E78B
:10145000029155E00A200AE0102008E010200090D8
:101460000021042004430191082703E00820002103
:10147000019100906002410F022907D0189A01CA19
:10148000189200229446032908D008E01898C01D3D
:10149000C108C90005C91891944603E080B2042927
:1014A00000D1C0B200210291210729D511997029DC
:1014B00006D0009A1021019B4A401A4305D00EE045
:1014C00040216A461173012108E06146014306D0BC
:1014D00030216A4611731199517302210291009AC9
:1014E0000821019B4A401A430AD16146014301D1B8
:1014F000610705D530216A46117301217F1E0291D3
:101500001199582904D035A10E910DA90D910DE026
:1015100037A1F9E76146019B009AFEF72FFE0E9B6B
:101520008C469B5C0D9A521E0D92137061460143CE
:10153000F0D10D9805A9081A20300190600703D555
:1015400001200004844300E001270198874201DD67
:10155000381A00E0002001990090411802980918FB
:101560000498401A0490E00306D421461A9B199A65
:10157000049800F0B3F94519002706E003A81A9A69
:10158000C05D199990476D1C7F1C02988742F5DB5E
:10159000E0030CD521461A9B199A049800F09EF995
:1015A000451904E01A9A3020199990476D1C00994A
:1015B000481E00900029F5DC08E00D980D99007890
:1015C000491C0D911A9A199990476D1C0199481E52
:1015D00001900029F1DC63E1092801003031323348
:1015E000343536373839616263646566000000005F
:1015F0003031323334353637383941424344454649
:101600000000000000F05AF94519761C30780028D7
:1016100000D0E2E528461BB0F0BD600700D40627E5
:101620001898C01DC108C90048680A680831C30F6E
:10163000DB071891190001D09CA108E0210501D514
:101640009BA104E0E10701D09AA100E09AA1430028
:1016500011985B08109165280CD006DC452809D04C
:1016600046281DD0472841D141E0662818D0672878
:101670003CD13CE00021112F01DB112000E0781C5F
:101680000191009008A911A8FFF7E8FC13990591B2
:101690000021119A15927F1C12980197009150E039
:1016A0000120C00703900120019008A9009711A80C
:1016B000FFF7D4FC139A149905920022119B009213
:1016C00012981593059A0192002901D0104602E064
:1016D000791C40180190381A01D5019804E0404265
:1016E000401E0090781C0190C01B029043E0012F27
:1016F00000DA01270021112F01DD112000E038461A
:101700000191009008A911A8FFF7A8FC1399059171
:10171000119A0021129815920091019721070CD47B
:101720000599B94201DB019900E00191012904DD2D
:10173000159A491E515C302906D0B84201DA011DC4
:1017400005DA0121029115E00199491EEDE7002813
:1017500005DC0099411800910199091A03E0019AEA
:10176000411C914200DD01910099401A401C0290F9
:101770000120C0070390200706D4029901988142F6
:1017800002DB0020C043029000206946C87707AF03
:10179000012103980337C907884224D00220119001
:1017A0002B201290039800280CDA404203902D2041
:1017B000129007E00A210398FEF7B8FC30317F1E33
:1017C000039039701199481E11900029F2DC03989A
:1017D0000028EFD1791E1298087030782021084037
:1017E0004530BF1E387006A8C01BC01D039010985E
:1017F0000078002800D00120019941180298C017F4
:101800000918039809180498401A401E0490E00330
:1018100006D421461A9B199A049800F05FF84519DE
:1018200010980078002803D01A9A199990476D1CD7
:10183000E00324D521461A9B199A049800F04EF82B
:1018400045191CE00098002807DB0099059888429C
:1018500003DD1598405C199901E0199930201A9A16
:10186000904700986D1C401C00900298401E02900A
:10187000002804D11A9A2E20199990476D1C0199BD
:10188000481E01900029DDDC05E038781A9A7F1C9B
:10189000199990476D1C0399481E03900029F4DCA8
:1018A00021461A9B199A0498ACE600002D0000000E
:1018B0002B0000002000000000000000F8B50446E6
:1018C00000251E461746880404D405E0394620202A
:1018D000B0476D1C641EF9D52846F8BDFFB5044617
:1018E000002581B01E46C80301D5302700E020271F
:1018F000880404D505E038460399B0476D1C641E82
:10190000F9D5284605B0F0BD10B5012111484904AC
:1019100001600921C9064160012201469204143187
:101920000A600D4A4A6000220273082383600A732A
:101930008B6000F037FD0748143000F033FD0121C3
:10194000044800F042FD03480121143000F03DFD41
:1019500010BD0000BC00002000040048F8B50E25B2
:10196000012000F0F1F8724948437249FEF7DEFBAE
:101970006F4F80B2C83F01266F4CB84213D9207810
:10198000002855D000202070A078002805D002281B
:1019900005D0042805D006284AD1012548E00325B2
:1019A00046E0052544E065494118632911D22078B5
:1019B000002860D000F0AAFF22696369821A994169
:1019C0005F4B00209A1A884101D2062530E000259D
:1019D0002EE05C494118452913D2207800284AD0CE
:1019E00000F094FF22696369801A99413223002232
:1019F000181A8A411CD200F089FF6161022520611A
:101A000016E0FF38F638632812D22078002832D04A
:101A100000F07CFF22696369821A99413223002019
:101A20009A1A884104D200F071FF61610425206197
:101A3000E168002904D00E2D02D028468847A57001
:101A4000022000F081F83A4948433A49FEF76EFB1C
:101A500080B2B84219D96078002862D00020607046
:101A6000E078072805D009280BD00B280BD00D28CB
:101A700057D108264EE0267000F048FF61612061D2
:101A8000D6E70A2646E00C2644E02C494118632993
:101A900011D26078002845D000F038FFA269E369D0
:101AA000821A9941264B00209A1A884101D20D26AC
:101AB00030E007262EE023494118452913D26078EB
:101AC00000282FD000F022FFA269E369821A994111
:101AD00032200023801A8B4123D200F017FFE161EE
:101AE0000926A06116E0FF38F638632819D260781D
:101AF000002817D000F00AFFA269E369821A994111
:101B000032200023801A8B410BD200F0FFFEE161EE
:101B10000B26A061A068002803D0A1683046884742
:101B2000E670F8BD667000F0F1FEE161A061F8BDFD
:101B3000E40C0000FF0F00001800002017FCFFFF5E
:101B400088130000B9FAFFFF10B500F001F810BDCE
:101B500010B5094C014607222046FEF7AAFD204693
:101B6000FEF704FE04212046FEF7DCFD0028F9D034
:101B70002046FEF7D4FD10BD0024014010B500F052
:101B800099F910BD10B5342205A107A0FFF730FA6E
:101B900009A0FFF72DFA7D20C00000F079F910BDF3
:101BA0006D61696E2E630000252D31307309253477
:101BB00064205B445D2000006170705F6576745F37
:101BC0007363686564756C650A0D0000FFB50446B3
:101BD0004089164681B0B04241D3224F217A607AC3
:101BE000A289824201DD401C00E00020C0B2884290
:101BF00032D0657A617A204600F08CFE6072207ADD
:101C0000617A814201D3081A03E0A289101A4018B0
:101C1000401CE18980B2814200D2E081BD421BD0EC
:101C200021680498EF00C851029800280DD0002EBA
:101C30000BD0608961686843081832460299FEF744
:101C40008BFA20683F1DC65303E0002021683F1D2A
:101C5000C853002005B0F0BD0B20C043FAE71520A3
:101C6000C043F7E7FFFF000038B50446207A617AE9
:101C7000814213D0257A2046217A00F04BFE207253
:101C80006089616868430918E8002268031DD35A17
:101C90006D462B80125808469047E7E738BD70B56F
:101CA000D4000834A5B29E070024002E02D01520CF
:101CB000C04370BD03605B1943604472047241818C
:101CC0008281C481002070BDF8B5224901208004C2
:101CD0000C46214A05C1092743101434FF0688C465
:101CE00000260E7101250D602671811221602546A6
:101CF0001A493C3DE9611A495C3CE161AB602F61E6
:101D00006F61C111EB60298381116983A060226139
:101D10006261E060802020834020608300F064FEE8
:101D2000E0698047284600F089F8204600F086F8F0
:101D3000284600F03FF8204600F03CF8542209A164
:101D40000DA0FFF755F9228829880FA0FFF750F959
:101D50003046F8BD2401002000040048E9290008AD
:101D600091250008626B393533785F68616E646C69
:101D700065722E6300000000252D31307309253473
:101D800064205B445D200000725F636869705F6976
:101D900064203D20307825303878202C206C5F631B
:101DA0006869705F6964203D203078253038780A92
:101DB0000D00000038B50446002000906B467022EC
:101DC0002621201D00F056FD050001D1009820803D
:101DD000862205A107A0FFF70BF92288294609A052
:101DE000FFF706F9284638BD626B393533782E6324
:101DF00000000000252D31307309253464205B4438
:101E00005D200000626B393533785F636869705F0D
:101E100069645F676574206572725F636F646520D3
:101E20003D202564202C20636869705F6964203D33
:101E3000203078253038780A0D00000010B5001DDC
:101E400000F01DFD10BD7CB50E461C461546012157
:101E5000FEF7DEFD0021684600950171C4716946F8
:101E60003046FEF760FD7CBD7CB50D461446012171
:101E7000FEF7CEFD01236A46009413710020907195
:101E800003205071D37169462846FEF74CFD7CBD96
:101E900010B5044604E0642000F04EF8641EA4B2BD
:101EA000002CF8D110BD10B50446C0B200F0B8FD4A
:101EB000204610BD70B5012188B04804FEF7A8FD8A
:101EC00001214802FEF7BCFD01200690032569466A
:101ED0000D7700240926CC77F60606A93046FEF7D2
:101EE00022FD0220069069460D77CC7706A9304680
:101EF000FEF719FD0F4D2846FEF7EAFB6846FEF790
:101F00003AFC694600940C710294049428460594A6
:101F1000FEF716FC2846FEF7EBFB01212846FEF7EC
:101F2000CDFB01212846FEF7FDFB0028F9D008B0C3
:101F300070BD00000024014006E01221491E090482
:101F4000090CFBD1401E80B20028F6D1704700007A
:101F500030B5104B1524E44398420FD845189D42E4
:101F600001D9601F30BD0C4B1B78042B02D00F2011
:101F7000C04330BD002A01D0002306E0204630BD1A
:101F80000478D4545B1CDBB2401C8B42F8D3002095
:101F900030BD0000FFFF000888000020F7B50446B0
:101FA0001E480E46844202D91520C043FEBDB10032
:101FB0000919814202D91A20C043FEBD1848007891
:101FC000042802D00F20C043FEBD0025FEF78AFC86
:101FD0003420FEF70BFCF709F00500D07F1C6802E7
:101FE0000019FEF709FC042807D16D1CEDB2BD42B3
:101FF00003D20B4800780428F1D02546002408E0DD
:102000000298A10041582846FEF746FC641CE4B241
:102010002D1DB442F4D3FEF72BFCFEBDFFFF0008DC
:10202000880000200020401CC0B20428FBD3704769
:1020300001498868C968704790000020F8B50646D5
:102040005000401CC7B20D461C46304600F033F924
:102050002946304600F0BEF8304600F064F905002D
:1020600001D01D2209E03946304600F0B3F8304671
:1020700000F059F9050008D0262210A113A0FEF7A0
:10208000B7FF16A0FEF7B4FF16E00121304600F0BE
:102090006BF8E0700121304600F066F8A070012175
:1020A000304600F061F860700021304600F05CF8C6
:1020B0002070304600F01BF92846F8BD6D69645F5A
:1020C000626B393533782E6300000000252D3130E6
:1020D0007309253464205B455D200000736C6176D4
:1020E0006572206E6F2061636B210A0D0000000095
:1020F00010B5040014D0628AE1686068FFF7B4FE8E
:10210000618A0122E06800F085FC228AA1682068CB
:10211000FFF7AAFE218A0122A06800F07BFC10BD17
:10212000FF222E3203A106A0FEF762FF08A0FEF7F1
:102130005FFF10BD66745F6932632E6300000000AC
:10214000252D31307309253464205B455D20000066
:10215000705F766972745F693263206973204E55CF
:102160004C4C0A0D00000000F8B50F4600266946E9
:102170000E700446028A8168354600680123FFF725
:1021800062FE6806050E618A0022E06800F042FCEB
:10219000FFF748FF618A0122E06800F03BFC218ADA
:1021A0006A46A06800F0F8F868460078002801D078
:1021B0006D1CEDB2FFF736FF761CF6B2082EE0D3A9
:1021C000002F204602D000F034F801E000F052F871
:1021D0002846F8BD70B50E460446028A816800257F
:1021E0000068FFF741FE618A0022E06800F012FCFF
:1021F000F209218AA06800F00DFCFFF713FF618A45
:102200000122E06800F006FCFFF70CFF618A002263
:10221000E06800F0FFFBFFF705FF70066D1C060E7F
:10222000EDB2082DE4D3218A0122A06800F0F2FB70
:1022300070BD10B504001CD0618A0022E06800F077
:10224000E9FB228AA1682068FFF70EFE218A00229E
:10225000A06800F0DFFBFFF7E5FE618A0122E0687D
:1022600000F0D8FBFFF7DEFE618A0022E06800F094
:10227000D1FB10BD10B504001CD0618A0022E068BB
:1022800000F0C8FB228AA1682068FFF7EDFD218AD3
:102290000122A06800F0BEFBFFF7C4FE618A0122A4
:1022A000E06800F0B7FBFFF7BDFE618A0022E0683E
:1022B00000F0B0FB10BD10B5040017D0218A012238
:1022C000A06800F0A7FB618A0122E06800F0A2FB91
:1022D000FFF7A8FE218A0022A06800F09BFBFFF711
:1022E000A1FE618A0022E06800F094FB10BD10B5E9
:1022F000040017D0218A0022A06800F08BFB618ABD
:102300000022E06800F086FBFFF78CFE618A012264
:10231000E06800F07FFBFFF785FE218A0122A068BC
:1023200000F078FB10BD38B50025694604460D70F5
:10233000002812D0228A0123A1682068FFF783FDBC
:10234000618A0122E06800F065FBFFF76BFE218ADD
:102350006A46A06800F020F813E01520C04338BD9D
:102360006D1CEDB2FA2D05D92046FFF7C0FF042001
:10237000C04338BD218A6A46A06800F00DF8FFF717
:1023800051FE684600780028EAD1618A0022E068A0
:1023900000F040FB002038BD008A084000D001203A
:1023A0001070704710B5002809D0017B0024002967
:1023B00007C807D00123FFF746FD204610BD1520B2
:1023C000C04310BDFFF750FDF7E710B5002808D057
:1023D00083680A4600244068194600F01BFB20462B
:1023E00010BD1520C04310BD10B53221044800F0C7
:1023F00027FB0122034B1146034800F045FA10BDAC
:10240000649600000D240008AC2B000870B5364C13
:102410000020617804291BD0A2780125334E012ABF
:102420002ED9A070012902D02179491C217121796E
:1024300007291AD920716079401CC0B26071E17817
:10244000884212D3012000F04FFB0420607037E077
:102450006070002000F048FB482225A128A0FEF76C
:10246000C7FD2BA0FEF7C4FD70BD2D486179405C0F
:102470002179C840C00701D0032000E0022060702D
:102480006078012813D002281FD00328ECD1A0784F
:10249000002826D0002000F027FBA0780022401C56
:1024A000A0700221306800F01DFA257070BDA07880
:1024B000002808D0002000F017FBA078401CA07076
:1024C00000220521EEE70120F5E7A078002808D0DA
:1024D000002000F009FBA0780022401CA070012120
:1024E000E0E70120D7E70000A0000020AC2B0008A7
:1024F00069725F74785F656E636F64652E63000058
:10250000252D31307309253464205B445D200000A3
:1025100069722074782066696E6973680D0A00001C
:10252000C0020020002801D00149886070470000E7
:102530001800002010B504462F2205A106A0FEF7C2
:1025400057FD0949A000095808A0FEF751FD10BD2C
:102550006D61696E2E630000252D313073092534BD
:1025600064205B445D200000380000206C5F6164E3
:10257000635F627574746F6E5F68616E646C6572C0
:10258000206576656E74203D2025730A0D000000DD
:1025900010B50948FFF706FF00210748FFF715FFB0
:1025A0003220FFF775FC01210348FFF70EFF64207E
:1025B000FFF76EFC10BD0000240100201CB500F0E8
:1025C000EDFA3F2251A153A0FEF712FD55A0FEF7F0
:1025D0000FFD40224DA14FA0FEF70AFD53A0FEF7CC
:1025E00007FD412249A14BA0FEF702FD59A0FEF7CD
:1025F000FFFC00F06DF9442244A146A0FEF7F8FC70
:1026000055A0FEF7F5FCFFF7EFFEFFF7B7FA5748C6
:10261000FFF788FF564800F0B1F9FFF755FBFFF7C9
:1026200073F954A0006801900020534C00906A4652
:1026300004212046FFF78CFC050008D05D2233A161
:102640004EA0FEF7D5FC294650A0FEF7D1FC642031
:10265000FFF71EFC61222DA148A0FEF7C9FC214610
:1026600051A0FEF7C5FC0421684600F081FA01AADA
:1026700001212046FFF792FC050008D0682223A123
:102680003EA0FEF7B5FC29464DA0FEF7B1FC642044
:10269000FFF7FEFB6A46032125462046FFF758FC5C
:1026A000040008D0712219A134A0FEF7A1FC214634
:1026B00036A0FEF79DFC6420FFF7EAFB742213A10D
:1026C0002EA0FEF795FC294637A0FEF791FC0321CA
:1026D000684600F04DFA414B142208214048FFF7AC
:1026E000DEFA00223F4B11463D48FFF76FFA852284
:1026F00006A13DA0FEF77CFC3FA0FEF779FC384820
:10270000FFF7B2FAFFF72AF9F9E700006D61696E89
:102710002E630000252D31307309253464205B447D
:102720005D2000000A0D0A0D00000000202020207E
:102730002020202A2A2A2057656C636F6D6520743B
:102740006F207468652050726F6A656374202A2A4E
:102750002A0A0D000A0D000054494D45525F494EAA
:10276000495420646F6E650A0D000000352500088D
:102770008D2900080102030400500008252D313086
:102780007309253464205B455D20000066745F6634
:102790006C6173685F72656164206572726F72202C
:1027A00025640A0D000000007265616420616464A4
:1027B00072657373203078253038783A0A0D00003E
:1027C00066745F666C6173685F77726974652065B3
:1027D00072726F722025640A0D0000004C01002007
:1027E0009C020020851B0008252D313073092534FB
:1027F00064205B495D2000005374617274206C6F2B
:102800006F700A0D00000000F0B50B30C108C90060
:10281000144F0026144A0FE003688B420BD38B42FF
:1028200005D95C1A4318456830C3083B00E043688B
:10283000136002C004E0021D10680028ECD130468D
:10284000002803D13868002801D00020F0BD064AD6
:1028500006481060064A121AD208D20044C001206D
:102860003860D7E7B8000020B4000020D402002070
:10287000D004002010B5001DFFF7E0FB10BD10B51F
:10288000001DFFF735FC10BD10B51524E4430028EA
:1028900017D0002B15D004682078012813D0617060
:1028A000A2702361002C0AD00820FFF7ADFF0021A1
:1028B0000460416005494A681060001D48600020BE
:1028C00010BD204610BD2220C04310BDAC0000202A
:1028D00010B500F011F9024800F044F910BD0000F5
:1028E0002529000800280BD00369002B0BD041607C
:1028F0008160002A00D0C260012101700020704771
:102900001520C04370472220C043704710B5FFF721
:102910008FFB10BD8089884201D9491C00E000214D
:10292000C8B2704770B5144D2878002822D1012014
:102930002870281D0026046819E0216808780028FE
:1029400014D04868002811D0401E486021680DD17D
:102950004878002801D00E7001E08868486021683E
:102960008878002802D0C868096988476468002C04
:10297000E3D12E7070BD0000A8000020002801D017
:102980000149C860704700001800002010B50446D7
:102990002A2205A106A0FEF72BFB0949A000095831
:1029A00008A0FEF725FB10BD6D61696E2E63000067
:1029B000252D31307309253464205B445D200000EF
:1029C00038000020725F6164635F627574746F6EBB
:1029D0005F68616E646C6572206576656E74203D1B
:1029E0002025730A0D00000010B50948FFF7DAFC36
:1029F00000210748FFF7E9FC3220FFF749FA0121DF
:102A00000348FFF7E2FC6420FFF742FA10BD000024
:102A100038010020002A01D081617047018570478C
:102A200010B5064C01462046FEF752FA802120469A
:102A3000FEF7E4F90028F9D010BD0000003801408D
:102A4000F3B5054601218BB04804FDF7E1FF0427EB
:102A500002206A4603971074032050740024947473
:102A600001200926D074F60603A93046FDF75BFF66
:102A7000002202213046FDF78EFF194829460068E2
:102A8000FDF754FB451E0C98691E48436421FDF771
:102A90004DFB86B201210804FDF7D2FF6A4614807F
:102AA000548001950F4D1481947269462846FEF7B3
:102AB0005DF970206A4690820120D082178302203F
:102AC000079610845484C0019084D48405A92846B4
:102AD000FEF70EF901212846FEF7DFF80DB0F0BD34
:102AE000000000200040014010B501460148FEF7FB
:102AF000DEF810BD004001401FB5174815490068B9
:102B0000FDF714FB154C401E208001210220FDF72B
:102B10008BFF10216846017301214173817303A863
:102B2000FDF74CFF7D20C0000190218868460180A0
:102B30000021018141800A4C69462046FEF716F9C2
:102B4000012202212046FEF7CAF801212046FEF7A5
:102B5000A4F81FBD40420F0000000020900000209C
:102B600000040040014948607047000090000020C8
:102B700070B50E460546002404E0295D04A0FEF76A
:102B800037FA641CB442F8D303A0FEF731FA70BDE3
:102B900025303258000000000D0A000010B5E12178
:102BA00049020120FDF7EFFD10BD0000AC0200203E
:102BB000425554544F4E5F4C5F4556454E545F440A
:102BC0004F574E5F52454C45415345004255545472
:102BD0004F4E5F525F4556454E545F444F574E5FD0
:102BE00052454C4541534500425554544F4E5F4C5D
:102BF0005F4556454E545F55505F52454C454153D5
:102C000045000000425554544F4E5F525F455645B3
:102C10004E545F55505F52454C45415345000000AE
:102C2000425554544F4E5F4C5F4556454E545F538A
:102C300045545F52454C454153450000425554545C
:102C40004F4E5F525F4556454E545F5345545F5259
:102C5000454C454153450000425554544F4E5F4C3E
:102C60005F4556454E545F444F574E5F505553484D
:102C700000000000425554544F4E5F525F45564588
:102C80004E545F444F574E5F50555348000000006C
:102C9000425554544F4E5F4C5F4556454E545F5518
:102CA000505F505553480000425554544F4E5F52A8
:102CB0005F4556454E545F55505F50555348000090
:102CC000425554544F4E5F4C5F4556454E545F53EA
:102CD00045545F5055534800425554544F4E5F522F
:102CE0005F4556454E545F5345545F505553480019
:102CF000425554544F4E5F4C5F4556454E545F4CC1
:102D00004F4E475F53455400425554544F4E5F5207
:102D10005F4556454E545F4C4F4E475F53455400F8
:102D2000402D000800000020BC0000003E100008FC
:102D3000FC2D0008BC000020140800004E10000804
:102D4000006CDC020000000000000000010203042F
:102D5000060708090000000000000E0E0000000039
:102D60000000000000000000000000000000000063
:102D70000000000000000000D82C00083C2C0008D7
:102D8000A82C0008042C0008742C0008CC2B000888
:102D9000082D0008C02C0008202C0008902C0008EA
:102DA000E82B0008582C0008B02B0008F02C000875
:102DB00000000000000000000102030401020304FF
:102DC00006070809000000000400000000000000E1
:102DD00000000000000000000000000000000000F3
:102DE00000000000000000000000000000000000E3
:0C2DF000AC00002000000000000000000B
:04000005080000C12E
:00000001FF
