:020000040800F2
:1000000040040020D5000008D5020008D3020008F3
:1000100000000000000000000000000000000000E0
:100020000000000000000000000000004D04000877
:10003000000000000000000029030008E10400089F
:100040000501000805010008050100080501000878
:100050000501000805010008050100080501000868
:100060000000000005010008050100080501000866
:100070000501000805010008050100080000000056
:100080004505000805010008000000000501000802
:100090000501000805010008050100080501000828
:1000A0000501000805010008050100080501000818
:1000B0000501000800000000000000000501000824
:1000C0000348854600F08AF800480047C50C000840
:1000D000400400200C4880F308880C480168090E91
:1000E0000B4A914205D10B480B4901600B480C4962
:1000F00001600C4880470C480047FEE7FEE7FEE73A
:10010000FEE7FEE7FEE700004004002004000000D8
:100110001F00000018100240010000000000014014
:1001200000000000E5040008C100000830B50B46DF
:10013000014600202022012409E00D46D5409D42C1
:1001400005D31D469540491B254695404019154647
:10015000521E002DF1DC30BD03460B439B0703D03C
:1001600009E008C9121F08C0042AFAD203E00B787C
:100170000370401C491C521EF9D27047F0B51FB4E1
:100180000646002082B005464024019100901BE005
:10019000019922460F46304600F042F8049A059B2A
:1001A000801A994110D310461946224600F028F8CB
:1001B000361A8F410197224601200021009F00F04E
:1001C0001FF838184D4100902046641E0028DFDCDF
:1001D000019B00982946324607B0F0BD064C012528
:1001E000064E05E0E36807CC2B430C3C98471034DF
:1001F000B442F7D3FFF768FFB40E0008D40E00082E
:1002000010B5202A04DB0146203A9140002010BDA1
:10021000914020239C1A0346E3401943904010BDAF
:1002200010B5202A04DB0846203AD040002110BD3A
:100230000B46D340D0402024A21A914008431946CF
:1002400010BDF0B50022012423460D6893401D40E7
:100250009D422AD10D79012D01D0022D12D187683E
:1002600055000326AE40B74387604E79AE4085689F
:100270002E43866085889D43858085888B79934051
:100280001D438580066855000323AB409E430660EE
:100290000E790768AE403E430660C6689E43C6605E
:1002A000CB79AB40C5682B43C360521C102ACBD31B
:1002B000F0BD4B07DB0E9A40C90810B5890008183D
:1002C000016A0F249C40A1430162016A114301624B
:1002D00010BD70477047000030B583780121027867
:1002E000002B15D094080E4BA400E4182368920745
:1002F000D50EFF22AA40934342789207120EAA40DD
:100300001A4322600078C006C00E8140054804E010
:10031000D006C00E814003488030016030BD00002F
:1003200000E400E000E100E070470000044A00291A
:10033000516901D0014300E08143516170470000E1
:1003400000100240044A0029D16901D0014300E0B5
:100350008143D1617047000000100240F8B5354D6F
:100360000446696800200C22334E114005D0042950
:1003700003D0082903D00C2918D0266018E069683A
:10038000686803228902D2030F0F1040BF1C0028A7
:1003900009D0E86A0107090F3046491CFFF7C6FE7D
:1003A0007843206004E025487843FAE72449216037
:1003B0006968244F0906090F7B5C21680A46DA4008
:1003C00062606B685B055B0FFB5CDA40A2602B6BC5
:1003D000DB0501D41C4B05E06B685B0401D45308BA
:1003E00000E09308E3602B6BDB0601D4666100E05C
:1003F00061612B6B9B070ED02B6B9B079B0F012B17
:100400000BD0296B8907890F022908D0296BC943B2
:10041000890707D007E0A26105E0A16103E001219F
:10042000C903FAE7A661E261296B090600D4044812
:100430006062F8BD0010024000127A0000093D0021
:10044000006CDC0216000020809FD5007047000081
:100450003CB5002220480192009201680123194313
:10046000016002210524240305680D400095019DCB
:100470006D1C0195009D002D02D1019DA542F3D177
:100480000468A40726D50093144B1F221A60426803
:1004900042604268426042687F23DB039A434260C5
:1004A00042682123DB031A434260026801231B06D2
:1004B0001A43026002689201FCD5426892089200D9
:1004C000426042680A43426041680907890F022975
:1004D000FAD13CBD00923CBD001002400020024019
:1004E0007047000010B514480168012211430160F3
:1004F0004168124A114041600168114A114001608F
:100500000168012292049143016041683F22120474
:1005100091434160C16A09090901C162016BFF226F
:10052000543291430163416B490849004163002102
:100530008160FFF78DFF10BD001002400CB8FFF87E
:10054000FFFFF6FE10B50C4C0221204600F025F806
:1005500000280FD00221204600F012F8074800239F
:100560008268C168521C59418260C160406800289D
:1005700000D0804710BD000000040040280000208B
:10058000C943018270470029018802D0012211432A
:1005900001E049084900018070470246138A0020A3
:1005A00092890B400A40002B02D0002A00D0012083
:1005B0007047002A828901D00A4300E08A43828181
:1005C0007047000010B50288144B984206D00124F1
:1005D000A407A04202D0124CA04203D17024A2432F
:1005E0004C8822430F4CA04203D00F4C22400C8970
:1005F000224302804A68C2620A880285984208D073
:100600000A4A904205D00A4A904202D0094A9042D2
:1006100001D1897A01860121818210BD002C01401F
:100620000004004000100040FFFC000000400140BA
:1006300000440140004801400029016802D0012225
:10064000114301E049084900016070470246D26940
:1006500000200A4200D001207047000070B5044617
:1006600000688AB00D46002640084000206060689F
:10067000032109038843A9680143616020681A497E
:10068000EA680840696811432A69024311432160FE
:10069000A06803210902884369690143A160684693
:1006A000FFF75CFE1148844201D1069E03E010482A
:1006B000844200D1079E20682968000401D570009B
:1006C00000E03046FFF732FD2A6852088A4200D81F
:1006D000401C2168090404D50107064A490F10404F
:1006E0000843A0810AB070BDF3E9FFFF0038014064
:1006F00000440040F0FF0000C905C90D01857047A6
:100700000FB410B503A9044B044A029800F018F87E
:1007100010BC08BC04B01847DD0B000838000020EE
:1007200002E008C8121F08C1002AFAD170477047BA
:10073000002001E001C1121F002AFBD17047000018
:10074000FFB591B00F460546002606E025280AD0E1
:10075000149A139990476D1C761C28780028F5D1BF
:10076000304615B0F0BD002400940121F34A0294F4
:1007700000E004436D1C2B780846203B9840104253
:10078000F7D128782A280ED0022128780246303A5C
:10079000092A15D8009A0A235A43303A80180C4384
:1007A0006D1C0090F1E701CF0090002805DA0120D0
:1007B00040030443009840420090022004436D1C13
:1007C00028782E2815D10420044368786D1C2A2827
:1007D0000AD101CF6D1C02900BE002990A2251430D
:1007E000303940186D1C02902878014630390929AB
:1007F000F3D928786C2810D006DC4C281AD0682849
:100800000ED06A2817D104E0742813D07A2812D1A8
:1008100010E00120400504430CE00121090501E03E
:10082000032109050C436978814203D101200005A9
:1008300024186D1C6D1C287803906E281ED00CDCCB
:10084000632831D004DC00288AD0582811D1B2E0C6
:1008500064287BD069280CD178E073282DD004DC83
:100860006F2870D0702804D1A7E075286CD0782844
:100870006BD0149A13999047761C62E06002400F87
:10088000022807D003280AD0042838680AD0066056
:100890003F1D56E03868F11706604160F8E7386898
:1008A0000680F5E70670F3E738786946087400209B
:1008B000487404A80390012003E0386803900020E6
:1008C000C0433F1D61070FD5002101E00199491C7C
:1008D000029A0191914213DA8142F7DB019A03995E
:1008E000895C0029F2D10BE0002101E00199491C4B
:1008F00001918142FADB019A0399895C0029F5D1C3
:1009000001990098139A401A00902146149B00F018
:100910003BF901998019461807E00398039900787C
:10092000491C0391149A139990470198401E019015
:10093000401CF2D12146149B139A009800F014F940
:1009400086196D1C09E741E033E034E00A200021FC
:10095000049005916002410F022905D001CFC21712
:100960009446032905D007E0FF1DFF08FF0003CFD1
:1009700006E000B2C2179446042902D140B2C11762
:100980008C4600226146944506DA0A460021404220
:1009900091418C462D2102E0210504D52B216A4688
:1009A0001176012103E0E10701D02021F7E7019151
:1009B00054E00A200BE0102009E0102004900021F0
:1009C0000420044308200591029003E00820002140
:1009D000059104906002410F022905D001CF002249
:1009E0009446032906D006E0FF1DFF08FF0003CF51
:1009F0008C4603E080B2042900D1C0B200210191ED
:100A000021072BD50399702906D0049A1021059B44
:100A10004A401A4305D00EE040216A461176012172
:100A200008E06146014306D030216A4611760399F9
:100A3000517602210191049A0821059B4A401A43EC
:100A40000CD16146014301D1610707D530216A46C7
:100A50001176012101910299491E029103995829A9
:100A600004D037A103910FA90F910DE039A1F9E747
:100A70006146059B049AFFF781FB039B8C469B5CB8
:100A80000F9A521E0F92137061460143F0D10F98D6
:100A900007A9081A20300390600704D5012000043C
:100AA0008443029801E0012002900399884201DD0D
:100AB000401A00E00020411802900198091800989F
:100AC000401A0090E00306D42146149B139A009824
:100AD00000F05AF886190020049008E006A9085C86
:100AE000149A139990470498401C761C049001991D
:100AF0008842F3DBE0030CD52146149B139A00983F
:100B000000F042F8861904E0149A302013999047B7
:100B1000761C0299481E02900029F5DC08E00F9827
:100B20000F990078491C0F91149A13999047761CDD
:100B30000399481E03900029F1DCFBE60928010017
:100B40003031323334353637383961626364656643
:100B50000000000030313233343536373839414205
:100B60004344454600000000F8B5044600251E46F3
:100B70001746880404D405E039462020B0476D1C90
:100B8000641EF9D52846F8BDFFB50446002581B09E
:100B90001E46C80301D5302700E02027880404D56D
:100BA00005E038460399B0476D1C641EF9D5284608
:100BB00005B0F0BD7CB50D4614460121FFF7B6FB2C
:100BC00001236A4600941371002090710320507134
:100BD000D37169462846FFF734FB7CBD10B5044647
:100BE000C1B2012000F050F8204610BD0FB410B57E
:100BF00088B010990F98149C08430121FFF796FBC9
:100C000001210E98FFF79EFB10A88089C2B210A8A0
:100C100001890C98FFF74DFB10A8C089C2B210A83B
:100C200041890D98FFF745FB10A8808806900221A6
:100C3000684601770121417700228277C17706A9B2
:100C40000C98FFF7FEFA10A8C088069006A90D9828
:100C5000FFF7F7FA2068009060680190A0680290A2
:100C6000E0680390606904902069059069460B98DC
:100C7000FFF7F4FC01210B98FFF7DEFC08B010BC75
:100C800008BC04B01847000010B501280AD00B4C6E
:100C90002046FFF731FD80212046FFF7D7FC0028D2
:100CA000F9D010BD064C2046FFF726FD80212046D6
:100CB000FFF7CCFC0028F9D010BD0000003801403F
:100CC0000044004000F098F82E220DA10EA0FFF77E
:100CD00017FD1148FFF714FD00F058F80F4800F019
:100CE0004FF80F4902220802FFF764FF362204A1E1
:100CF00005A0FFF705FD0BA0FFF702FDFEE70000D2
:100D00006D61696E2E630000252D31307309253425
:100D100064205B495D200000640E0008450D00085A
:100D2000000400480A0D48656C6C6F20576F726CA8
:100D300064202121210A0D00002A01D08161704721
:100D40000185704710B50C497D2308881B01401CA4
:100D500082B20A480A809A4202D900220A8005E03B
:100D60007D21C9008A4201D9012200E0002202212E
:100D7000FFF7E2FF10BD000014000020000400484F
:100D80000149486070470000280000207FB51748DF
:100D900015490068FFF7CAF9154D401E288001214A
:100DA0000220FFF7CFFA1021684601730024447334
:100DB0000121817303A8FFF78FFA7D20C000019005
:100DC000298868460180048144800A4C694620468F
:100DD000FFF7F8FB012202212046FFF7EAFB012181
:100DE0002046FFF7D0FB7FBD40420F0000000020EF
:100DF000280000200004004070B598B00120400495
:100E0000174E0925ED060E961190129013900F952E
:100E10000421109510A801820821418202218182BB
:100E20000321C182012101834183E120400200248A
:100E300007900C200C90089409940A940B9408A82D
:100E4000047507A80690182211A96846FFF784F9CF
:100E50002B461A4631460020FFF7C8FE18B070BD79
:100E6000004400400A0D5553415254205072696E9F
:100E70007466204578616D706C653A2072657461A6
:100E800072676574207468652043206C69627261C2
:100E90007279207072696E74662066756E6374690B
:100EA0006F6E20746F207468652055534152540A48
:100EB0000D000000D40E0008000000203C000000DF
:100EC00020070008100F00083C0000200404000068
:100ED00030070008006CDC02000000000000000089
:100EE00001020304060708090000000000000102D7
:100EF00003040102030406070809000000000000C3
:100F000000000000000000000000000000000000E1
:04000005080000C12E
:00000001FF
