:020000040800F2
:1000000070040020D5000008F10C0008EF0C000877
:1000100000000000000000000000000000000000E0
:100020000000000000000000000000002D0E00088D
:100030000000000000000000F30C0008411400085C
:100040000501000805010008050100080501000878
:100050000501000805010008050100081D0B000846
:100060000000000005010008050100080501000866
:100070000501000805010008050100080000000056
:10008000D514000805010008000000000501000863
:100090000501000805010008050100080501000828
:1000A0000501000805010008050100082F150008DA
:1000B00031150008000000000000000005010008E4
:1000C0000348854600F03EFA00480047C520000876
:1000D000700400200C4880F308880C480168090E61
:1000E0000B4A914205D10B480B4901600B480C4962
:1000F00001600C4880470C480047FEE7FEE7FEE73A
:10010000FEE7FEE7FEE700007004002004000000A8
:100110001F00000018100240010000000000014014
:100120000000000075140008C100000830B50B463F
:10013000014600202022012409E00D46D5409D42C1
:1001400005D31D469540491B254695404019154647
:10015000521E002DF1DC30BDF0B51FB40646002064
:1001600082B005464024019100901BE0019922468F
:100170000F46304600F008FA049A059B801A994110
:1001800010D310461946224600F0EEF9361A8F4178
:100190000197224601200021009F00F0E5F9381860
:1001A0004D4100902046641E0028DFDC019B009832
:1001B0002946324607B0F0BDF0B50746084658401C
:1001C00087B0C00F049048000E4659004008490807
:1001D000BC1A884105D2384631461E4617460B46A2
:1001E00002465800400810434CD0300D03904005A3
:1001F0005900400D490D0590401A0290402872DACE
:1002000018030121000B090508430190049800928E
:10021000002805D0019952420020884100920190A7
:10022000029840210A1A0199009800F09DF90546AC
:100230000C466B4607CB00F0B8F9C0197141039A20
:100240000E0D0023D71756401A467A40164344D065
:10025000049A002A2DD0029A012A039A15DC12056D
:10026000C01A914101263605001C7141D20F059E2E
:10027000D2070093019202962A46234600F0B5F970
:1002800007B0F0BD38463146FAE71605224A0F4658
:10029000B218C01AB74101210905001C4F410018CE
:1002A0007F41114618187941E20F10436D196441DE
:1002B00013E0E2076D0815436408C2071443039A6C
:1002C00001261205C01A91413605001C7141CE0766
:1002D000400830434908C01851412A46234600F0DF
:1002E00077F9CDE7FFE7049801224000C117121A01
:1002F00000238B4104983146C417381AA141EEE718
:1003000030B40124E407634030BC55E730B4012425
:10031000E407614030BC4FE70000E0FFF0B51FB4D8
:1003200088B00B990998002448400999C00F4900EA
:1003300049080991C0070B990090490049080B91A1
:1003400009990898A64608431CD00B990A980843B7
:1003500018D0099801244000420D4800410D099829
:1003600024050003000B204309900B980003000BA9
:1003700020430B9050181C4940180022019014464D
:10038000104605E0002001460DB0F0BD032801DA5B
:10039000034600E003239C46C11A0AAE0AE05F0050
:1003A00008ADED5B4F00F75B7D430027AA187C4149
:1003B000491C5B1E6145F2DD410004AB5A52210429
:1003C000120C0A43240C401C0828DFDB0198029021
:1003D0000099704601910090059B049A0799069830
:1003E00000F003F9D0E700000DFCFFFFF0B50C466C
:1003F0005C4085B0E40FE40703944C0000266408D9
:1004000059009446490802460296224321D062468A
:100410000A431ED06200570D4A000E032303550DF8
:10042000012402462C492405781B1B0B360B40186F
:1004300023432643614600901C46501AB44103D31F
:100440000098401C009002E0921800985B41002840
:1004500003DA0020014605B0F0BD002001210905A6
:100460000746864611E064461D46141BB54106D377
:100470006546521BB341744607430C43A646CD075D
:1004800040084908284392185B4105460D43EAD1CC
:100490001046184313D06046194650407140084337
:1004A00006D06046101AB34106D20122002306E0AE
:1004B00000220123DB0702E00122D24353100098FF
:1004C00074460105381C6141029C039D0019694175
:1004D00000F07EF8BFE70000FD0300004A000903BA
:1004E0000123090B1B0519430A4B10B5520D9A4203
:1004F00002DA0020014610BD064B34339A4203DC79
:100500009A1A00F041F810BD034BD21800F02CF8F5
:1005100010BD0000FF030000CDFBFFFF10B5002958
:1005200004DB0124E40740428C412146002B04DB1C
:100530001C460123DB075242A341994200D190425D
:1005400010BD0000064C0125064E05E0E36807CC0F
:100550002B430C3C98471034B442F7D3FFF7B4FD5B
:10056000042200082422000810B5202A04DB0146DA
:10057000203A9140002010BD914020239C1A034650
:10058000E3401943904010BD10B5202A04DB084613
:10059000203AD040002110BD0B46D340D04020244B
:1005A000A21A91400843194610BD10B5202A06DB57
:1005B000CB170846203A1041C1170B4306E00B4603
:1005C0001341D0402024A21A91400843194610BD7F
:1005D00010B5002B08DA0024401C614192185B41E1
:1005E0001A4301D14008400010BDF0B51FB482B0DD
:1005F00005460C0003D0084601F0D2F802E001F0F5
:10060000CFF820300246009021462846FFF7ACFF85
:10061000049B059A04460F4618431143084314D01F
:10062000184610431BD0009840210A1A1846059915
:10063000FFF7AAFF05460E46009A05990498FFF7B2
:1006400093FF084305D0012004E02046394607B057
:10065000F0BD0020C11705430E432C4337430099DA
:100660000E986305401A7905E40A00220C43FD0A3E
:100670000A3002D500200146E9E701051019694159
:100680000C9C0D9D00196941FFF7A2FFDFE770B5D3
:100690000546002400222146284601F051F8641C3A
:1006A000E4B2202CF6D370BD10B5002806D0012886
:1006B00005D0022802D1084600F0FCFF10BD084614
:1006C00000F0B2FF10BD00000749498848430749C0
:1006D00048610020886101220A610A69D203FCD5C1
:1006E00008618861704700001C00002000E000E005
:1006F0000749497848430749486100208861012239
:100700000A610A69D203FCD508618861704700005C
:100710001C00002000E000E008B5694600F088FBFE
:10072000684601780122002000F00EF86846417802
:100730000022012000F008F868468178002202209B
:1007400000F002F808BD00007FB504461546684673
:1007500000F0EEF86846C57103AB02AA0199009853
:1007600000F0CAFB002C10D0012C18D0022C0BD1A9
:100770006846027A01210F4800F0E2FF6846027BDA
:1007800000210C4800F0DCFF7FBD6846027A05219D
:10079000084800F0D5FF6846027B0421F1E768466F
:1007A000027A0321034800F0CBFF6846027B022156
:1007B000E7E700004800002008B5694600F038FB74
:1007C000684601780122002000F00EF86846417862
:1007D0000022012000F008F86846817800220220FB
:1007E00000F002F808BD00007FB5044615466846D3
:1007F00000F09EF86846C57103AB02AA0199009803
:1008000000F026FC002C10D0012C18D0022C0BD1AB
:100810006846027A1B210F4800F092FF6846027B6F
:100820001A210C4800F08CFF7FBD6846027A1F2118
:10083000084800F085FF6846027B1E21F1E7684604
:10084000027A1D21034800F07BFF6846027B1C21D1
:10085000E7E70000480000207FB50446154602A8DF
:1008600000F066F86846C57301AB6A4603990298C2
:1008700000F094FC230000F0AAFF0A06101A245886
:10088000582E38424C58684602780921274800F013
:1008900057FF68460279082144E0684602780B2138
:1008A000224800F04DFF684602790A213AE0684686
:1008B00002780D211D4800F043FF684602790C21A3
:1008C00030E0684602780F21184800F039FF68468A
:1008D00002790E2126E0684602781121134800F0C3
:1008E0002FFF6846027910211CE068460278132128
:1008F0000E4800F025FF68460279122112E0684692
:1009000002781521094800F01BFF6846027914217E
:1009100008E0684602781721044800F011FF684695
:1009200002791621014800F00BFF7FBD480000202E
:1009300030B504461B4885B0455C2C22E807C00F43
:100940002070A807C00F60706807C00FA07028074C
:10095000C00FE070E806C00F2071A806C00F6071DC
:100960006806C00FA0710020E0710FA111A000F077
:1009700007FF294613A000F003FF2D220AA10DA0B6
:1009800000F0FEFEE07823786278A17801AD0FC513
:10099000207900906379A279E1790EA000F0F0FE51
:1009A00005B030BD080000207365675F636F646544
:1009B0002E630000252D31307309253464205B49F6
:1009C0005D20000064617461203D3078253032780C
:1009D0000D0A00007365675F636F64652D3E78677D
:1009E0006665646362613D25642564256425642031
:1009F00025642564256425640D0A00001C481B49F4
:100A000001601C4941601C4981601C49C1601C494E
:100A100001611C4941611C4981611C49C1611C493A
:100A2000016200F00FFD124800F020F91048FFF7B6
:100A30002EFE184C2068FFF76FFE6068FFF7BCFEC3
:100A4000002206211046FFF707FF002206210120A1
:100A5000FFF702FF012211460220FFF7FDFE7D2471
:100A6000E400204600F018F8FBE70000450C000801
:100A700048000020FD0B00080B0C0008190C0008B2
:100A8000270C0008D30C0008E10C0008350C000806
:100A90003D0C00080000002010B50446082210217B
:100AA000114800F04DFE2046FFF70EFE08221221ED
:100AB0000D4800F045FE2046FFF706FE08221421EF
:100AC000094800F03DFE2046FFF7FEFD08221621F2
:100AD000054800F035FE2046FFF7F6FD00F006F869
:100AE0002046FFF7F1FD10BD4800002010B50022A0
:100AF0001021094800F024FE00221221064800F0CF
:100B00001FFE00221421044800F01AFE00221621C4
:100B1000014800F015FE10BD4800002010B5FF246C
:100B20000134204600F014F8002807D0204600F0D9
:100B300009F803480068002800D0804710BD000075
:100B40003000002001494861704700000004014066
:100B5000034A0146526900200A4200D00120704732
:100B600000040140F0B50022012423460D689340A3
:100B70001D409D422AD10D79012D01D0022D12D1A7
:100B8000876855000326AE40B74387604E79AE4074
:100B900085682E43866085889D43858085888B790E
:100BA00093401D438580066855000323AB409E4358
:100BB00006600E790768AE403E430660C6689E43F5
:100BC000C660CB79AB40C5682B43C360521C102A6A
:100BD000CBD3F0BD4B07DB0E9A40C90810B5890096
:100BE0000818016A0F249C40A1430162016A114365
:100BF000016210BD018570478161704710B5092001
:100C00001021C006FFF7F8FF10BD10B50920102114
:100C1000C006FFF7EFFF10BD10B509208021C00608
:100C2000FFF7EAFF10BD10B509208021C006FFF7CD
:100C3000E1FF10BD10B5FFF747FD10BD10B5FFF780
:100C400057FD10BD1CB50121480400F053F8B02039
:100C500000900120694608710020887103224A71C2
:100C6000C8710920C006FFF77DFF1CBD10B5044602
:100C7000006880476068804760698047E068804717
:100C80007D20E169000188475221204600F04DFB9C
:100C90003021204600F049FB0021204600F045FBB2
:100CA0000A21204600F041FB0221204600F03DFBD6
:100CB0000621204600F039FB2921204600F035FBB3
:100CC0000121204600F031FB0321204600F02DFBDE
:100CD00010BD10B509202021C006FFF78DFF10BD03
:100CE00010B509202021C006FFF784FF10BD704712
:100CF00070477047044A0029516901D0014300E060
:100D0000814351617047000000100240044A0029ED
:100D1000D16901D0014300E08143D16170470000F7
:100D200000100240044A0029916901D0014300E00B
:100D3000814391617047000000100240F8B5354DC5
:100D40000446696800200C22334E114005D0042966
:100D500003D0082903D00C2918D0266018E0696850
:100D6000686803228902D2030F0F1040BF1C0028BD
:100D700009D0E86A0107090F3046491CFFF7D6F988
:100D80007843206004E025487843FAE7244921604D
:100D90006968244F0906090F7B5C21680A46DA401E
:100DA00062606B685B055B0FFB5CDA40A2602B6BDB
:100DB000DB0501D41C4B05E06B685B0401D45308D0
:100DC00000E09308E3602B6BDB0601D4666100E072
:100DD00061612B6B9B070ED02B6B9B079B0F012B2D
:100DE0000BD0296B8907890F022908D0296BC943C9
:100DF000890707D007E0A26105E0A16103E00121B6
:100E0000C903FAE7A661E261296B090600D4044828
:100E10006062F8BD0010024000127A0000093D0037
:100E2000006CDC0220000020809FD500704700008D
:100E300070B50C467D210546C900FFF777F90846D5
:100E40006421FFF773F9207064212846FFF76EF9DB
:100E500008460A21FFF76AF960700A212846FFF761
:100E600065F9A170B1220DA10FA000F089FC2178D5
:100E700011A000F085FCB22208A10BA000F080FCBC
:100E8000617813A000F07CFCB32204A106A000F05E
:100E900077FCA17813A000F073FC70BD7365675FE9
:100EA000636F64652E630000252D3130730925348E
:100EB00064205B495D2000007365675F6461746155
:100EC0002D3E68696768203D25640D0A000000001A
:100ED0007365675F646174612D3E6D6964203D25B3
:100EE000640D0A007365675F646174612D3E6C6F09
:100EF00077203D25640D0A00FFB58FB008ABD87F81
:100F0000069010AB197805915A7808AB04921D7FB2
:100F100010ABC007C907DB78C00F890F08439C4698
:100F20000393D10708AB490F9F7F084310ABE90734
:100F30009E78090F08AB08435C7F119963460870DF
:100F4000D807F907C00F890F0843F107490F084375
:100F5000E107090F084312995722087016A119A03A
:100F600000F00EFC00951BA0049B059A069900F06A
:100F700007FC582210A113A000F002FC33463A46A9
:100F800000941EA0039900F0FBFB5A220AA10DA0B9
:100F900000F0F6FB1198017821A000F0F1FB5B2234
:100FA00005A108A000F0ECFB1298017822A000F047
:100FB000E7FB13B0F0BD00007365675F636F6465A6
:100FC0002E630000252D31307309253464205B49E0
:100FD0005D2000007365675F686967682E636F6DE9
:100FE00031636F6D32636F6D33636F6D34202564D1
:100FF0002564256425640D0A000000007365675FA1
:101000006C6F772E636F6D31636F6D32636F6D330D
:10101000636F6D342025642564256425640D0A0002
:10102000636F6D5F646174615F68203D3078253067
:1010300032780D0A00000000636F6D5F64617461B7
:101040005F6C203D3078253032780D0A00000000BA
:10105000FFB585B06A46D37E0393517D0291927E9F
:10106000019294466A46957D107D0490577E167EC7
:10107000D47DC007FA07C00F920F1043F207520F3A
:101080001043E207120F1043079AC9071070D807E0
:10109000C00F890F08436246D107490F0843E9078B
:1010A000090F084308997E22087016A118A000F0C5
:1010B00067FB33463A46009419A0049900F060FBA0
:1010C0007F2210A112A000F05BFB00951EA0019BE7
:1010D000029A039900F054FB81220AA10CA000F0AF
:1010E0004FFB0798017821A000F04AFB822205A15E
:1010F00007A000F045FB0898017822A000F040FB13
:1011000009B0F0BD7365675F636F64652E630000AF
:10111000252D31307309253464205B495D200000A2
:101120007365675F686967682E636F6D31636F6DA4
:1011300032636F6D33636F6D3420256425642564DD
:1011400025640D0A000000007365675F6C6F772EE1
:10115000636F6D31636F6D32636F6D33636F6D34C9
:101160002025642564256425640D0A00636F6D5F86
:10117000646174615F68203D3078253032780D0AF3
:1011800000000000636F6D5F646174615F6C203DFF
:101190003078253032780D0A00000000FFB58FB09E
:1011A00010ABD878069008AB597F059110AB9A78B0
:1011B00008AB04929D7FC007C907C00F890F1B7F32
:1011C0000843D1079C460393490F10AB0843E90736
:1011D0005F781E78090F08AB0843DC7F11996346DE
:1011E0000870D807F907C00F890F0843F107490FA6
:1011F0000843E107090F08431299A522087016A1B8
:1012000018A000F0BDFA00951AA0049B059A069953
:1012100000F0B6FAA62210A112A000F0B1FA3346EF
:101220003A4600941DA0039900F0AAFAA8220AA148
:101230000CA000F0A5FA1198017821A000F0A0FA06
:10124000A92205A107A000F09BFA1298017822A01C
:1012500000F096FA13B0F0BD7365675F636F646565
:101260002E630000252D31307309253464205B493D
:101270005D2000007365675F686967682E636F6D46
:1012800031636F6D32636F6D33636F6D342025642E
:101290002564256425640D0A000000007365675FFE
:1012A0006C6F772E636F6D31636F6D32636F6D336B
:1012B000636F6D342025642564256425640D0A0060
:1012C000636F6D5F646174615F68203D30782530C5
:1012D00032780D0A00000000636F6D5F6461746115
:1012E0005F6C203D3078253032780D0A0000000018
:1012F000F8B517460E460446002513E0A06980475E
:10130000300601D4206900E0E0688047216A282087
:10131000884760698047216A282088477006060E42
:101320006D1CEDB2BD42E9D3F8BD70B504468068CE
:101330000D468047226A28209047032280212046BC
:10134000FFF7D6FF092229462046FFF7D1FF606844
:101350008047216A0A20884770BDF8B517460E46B7
:101360000446002513E0F00714D0E0688047216AA6
:1013700028208847A0698047216A2820884760691B
:101380008047216A2820884776086D1CEDB2BD424F
:10139000E9D3F8BD2069E9E73CB500222048019275
:1013A00000920168012319430160022105242403EE
:1013B00005680D400095019D6D1C0195009D002D57
:1013C00002D1019DA542F3D10468A40726D500935C
:1013D000144B1F221A6042684260426842604268B1
:1013E0007F23DB039A43426042682123DB031A43D5
:1013F0004260026801231B061A43026002689201E0
:10140000FCD5426892089200426042680A434260FA
:1014100041680907890F0229FAD13CBD00923CBD01
:1014200000100240002002400422044904280869F8
:1014300002D09043086170471043FBE700E000E0F2
:101440007047000010B50420C043FFF7EDFF0748C8
:10145000C1690902090AC16105497D220878D200E3
:10146000C00848705043488010BD000004ED00E003
:101470001C00002010B514480168012211430160CE
:101480004168124A114041600168114A11400160EF
:101490000168012292049143016041683F221204D5
:1014A00091434160C16A09090901C162016BFF22D0
:1014B000543291430163416B490849004163002163
:1014C0008160FFF769FF10BD001002400CB8FFF803
:1014D000FFFFF6FE10B50C4C0221204600F01BF871
:1014E00000280FD00221204600F012F80748002300
:1014F0008268C168521C59418260C16040680028FE
:1015000000D0804710BD00000004004038000020DB
:10151000C943018270470246138A002092890B401A
:101520000A40002B02D0002A00D0012070477047EB
:101530007047016270470029016802D001221143FF
:1015400001E049084900016070470246D269002065
:101550000A4200D00120704710B50B041C0E012375
:101560008B40022C02D0032C02D002E0001D00E0D0
:1015700008300168002A01D0194300E09943016056
:1015800010BD000070B5044600688AB00D46002604
:101590004008400020606068032109038843A9686F
:1015A0000143616020681A49EA680840696811438C
:1015B0002A69024311432160A0680321090288437C
:1015C00069690143A1606846FFF7B8FB114884428E
:1015D00001D1069E03E01048844200D1079E206896
:1015E0002968000401D5700000E03046FEF79EFD3A
:1015F0002A6852088A4200D8401C2168090404D590
:101600000107064A490F10400843A0810AB070BD87
:10161000F3E9FFFF0038014000440040F0FF000004
:10162000C905C90D0185704770B50546012188B00F
:101630004804FFF75FFB01218803FFF773FB0921D3
:10164000CE0601223046FFF7C5FA01220A213046B4
:10165000FFF7C0FA0320400206900220694608778F
:101660000320487700248C770120C87706A93046EC
:10167000FFF778FA009501940294039405940C20E6
:101680000A4C049069462046FFF77CFF0121204662
:10169000FFF751FF40212046FFF74BFF012204498D
:1016A0002046FFF759FF08B070BD00000038014028
:1016B00005010500F0B5012106464C0489B020461D
:1016C000FFF718FB01212046FFF720FB0927FF0643
:1016D000012202213846FFF77DFA01220321384614
:1016E000FFF778FA0C250221684606950177032159
:1016F0004177002484770121C17706A93846FFF796
:1017000031FA009601940294039405940A4C6946B8
:1017100004952046FFF736FF01212046FFF70BFF17
:1017200040212046FFF705FF012204492046FFF72C
:1017300013FF09B0F0BD00000044004005010500A2
:1017400070B50446806816460D468047216A2820F9
:1017500088470322A0212046FFF7CAFDA806010EF4
:1017600006222046FFF7C4FD042231462046FFF73B
:10177000F4FD60688047216A2820884770BD00001A
:101780000FB410B503A9044B044A029800F0F6F810
:1017900010BC08BC04B01847B52000081800002091
:1017A0002021020C01D010211046020A01D010465F
:1017B0000839020901D01046091F820801D01046DD
:1017C000891E420801D0881E7047081A704730B43D
:1017D0007446641E2578641CAB4200D21D46635DCE
:1017E0005B00E31830BC184702E008C8121F08C1AC
:1017F000002AFAD170477047002001E001C1121F92
:10180000002AFBD170470000F0B51FB486B00998DC
:10181000089A030D0021024314D05148514A181868
:10182000504305141198012810981AD0281A401C0A
:1018300000264D4F4D49009601910490002812DA80
:10184000444211E01198012449A3012801D11098C4
:10185000C1430698119A84600360C26041600BB076
:10186000F0BD4042E4E70446210500203F4A001C49
:1018700051410391029012E0E00707D032463B4607
:1018800001990098FEF74AFD0191009032463B46CF
:1018900010461946FEF742FD06460F466410002C1E
:1018A000EAD10498039B0028029A0999089806DA5D
:1018B000FEF734FD019B009AFEF730FD05E0FEF7D0
:1018C00095FD019B009AFEF791FD04460E4600220D
:1018D000284BFEF723FE03D80020C043014607E053
:1018E0000022254B20463146FEF766FCFEF7F6FD4A
:1018F000102409E0002C0ADB0A220023FEF72CFC4E
:10190000079B30321A55641E02460A43F2D1112257
:10191000641C079B121B1C19119B012B03D0012374
:1019200008430ED10AE0084304D011201090002093
:10193000119077E71098151A6D1E0BE010988242EF
:1019400002DD00236D1C03E0824201DA00236D1EDC
:10195000002BEED0069811998260C16030C07EE7FE
:1019600001FCFFFF104D0000000014400000F03F9C
:10197000300000000000F0430000E03FFFB597B0EA
:101980000646002518E2252877D100242746FD4980
:10199000049400E00443761C32780120203A904001
:1019A0000842F7D130782A280ED00222307801463A
:1019B0003039092916D804990A2359433039401877
:1019C0001443761C0490F1E7189802C8049118900B
:1019D000002904DA01204003044348420490022015
:1019E0000443761C30782E2814D1042004437078E8
:1019F000761C2A2809D11898761C80C8189009E00E
:101A00000A214F43303FC719761C307801463039E0
:101A10000929F5D930786C2810D006DC4C281AD06A
:101A200068280ED06A2817D104E0742813D07A28C9
:101A300012D110E00120400504430CE0012109050A
:101A400001E0032109050C437178814203D1012093
:101A500000052418761C761C3078119066280BD06F
:101A600013DC58287DD009DC00287BD04528F6D02F
:101A70004628F4D047281AD1A5E118E0632835D0CC
:101A8000642870D0652812D19DE170286CD008DCE4
:101A90006728F1D069287BD06E280DD06F2806D139
:101AA000BAE073282ED0752871D0782859D01A9AA8
:101AB000199990476D1C7EE16002400F022809D001
:101AC00003280DD00428189801680DD00D60001D62
:101AD000189070E11898EA1701680D604A60F6E7FF
:101AE000189801680D80F2E70D70F0E718986A46C3
:101AF00001781172001D18900020507202A8009009
:101B0000012005E0189802C8189000200091C043F9
:101B100061070DD5002101E00199491C0191B942ED
:101B200012DA8142F8DB009A515C0029F4D10BE013
:101B3000002101E00199491C01918142FADB019ADF
:101B40000099895C0029F5D1019904981A9B471ADC
:101B500021463846199A00F097FA0199401945181C
:101B60000BE04FE02CE113E04EE000980099007884
:101B7000491C00911A9A199990470198401E0190AA
:101B8000401CF2D1214638461A9B199A10E137E0E1
:101B90000A200021009001916002410F022907D024
:101BA000189A01CA1892C2179446032908D00AE06D
:101BB0001898C01DC108C90005C91891944607E0CE
:101BC00000B2C2179446042902D140B2C1178C4614
:101BD00000226146944506DA0A46002140429141BE
:101BE0008C462D2102E0210504D52B216A46117374
:101BF000012103E0E10701D02021F7E7029155E040
:101C00000A200AE0102008E01020009000210420A3
:101C100004430191082703E008200021019100906E
:101C20006002410F022907D0189A01CA18920022B7
:101C30009446032908D008E01898C01DC108C900BF
:101C400005C91891944603E080B2042900D1C0B2BE
:101C500000210291210729D51199702906D0009AF7
:101C60001021019B4A401A4305D00EE040216A46EC
:101C70001173012108E06146014306D030216A4614
:101C800011731199517302210291009A0821019B4D
:101C90004A401A430AD16146014301D1610705D583
:101CA00030216A46117301217F1E02911199582932
:101CB00004D035A10E910DA90D910DE037A1F9E7E2
:101CC0006146019B009AFEF747FA0E9B8C469B5C8F
:101CD0000D9A521E0D92137061460143F0D10D987A
:101CE00005A9081A20300190600703D501200004DF
:101CF000844300E001270198874201DD381A00E0A3
:101D00000020019900904118029809180498401A7F
:101D10000490E00306D421461A9B199A049800F017
:101D2000B3F94519002706E003A81A9AC05D19996E
:101D300090476D1C7F1C02988742F5DBE0030CD5B1
:101D400021461A9B199A049800F09EF9451904E05F
:101D50001A9A3020199990476D1C0099481E0090DE
:101D60000029F5DC08E00D980D990078491C0D91CB
:101D70001A9A199990476D1C0199481E01900029E3
:101D8000F1DC63E109280100303132333435363774
:101D900038396162636465660000000030313233B7
:101DA0003435363738394142434445460000000057
:101DB00000F05AF94519761C3078002800D0E2E589
:101DC00028461BB0F0BD600700D406271898C01D38
:101DD000C108C90048680A680831C30FDB071891B9
:101DE000190001D09CA108E0210501D59BA104E0C8
:101DF000E10701D09AA100E09AA1430011985B0885
:101E0000109165280CD006DC452809D046281DD045
:101E1000472841D141E0662818D067283CD13CE0F2
:101E20000021112F01DB112000E0781C01910090AE
:101E300008A911A8FFF7E8FC139905910021119A50
:101E400015927F1C12980197009150E00120C00765
:101E500003900120019008A9009711A8FFF7D4FC76
:101E6000139A149905920022119B009212981593CF
:101E7000059A0192002901D0104602E0791C401811
:101E80000190381A01D5019804E04042401E0090AC
:101E9000781C0190C01B029043E0012F00DA01275B
:101EA0000021112F01DD112000E038460191009042
:101EB00008A911A8FFF7A8FC13990591119A002110
:101EC000129815920091019721070CD40599B942F7
:101ED00001DB019900E00191012904DD159A491EF9
:101EE000515C302906D0B84201DA011D05DA012122
:101EF000029115E00199491EEDE7002805DC0099E3
:101F0000411800910199091A03E0019A411C91427C
:101F100000DD01910099401A401C02900120C00789
:101F20000390200706D402990198814202DB002029
:101F3000C043029000206946C87707AF012103988B
:101F40000337C907884224D0022011902B20129019
:101F5000039800280CDA404203902D20129007E0ED
:101F60000A210398FEF7E2F830317F1E03903970A2
:101F70001199481E11900029F2DC03980028EFD136
:101F8000791E129808703078202108404530BF1E15
:101F9000387006A8C01BC01D039010980078002858
:101FA00000D00120019941180298C0170918039820
:101FB00009180498401A401E0490E00306D42146F4
:101FC0001A9B199A049800F05FF845191098007848
:101FD000002803D01A9A199990476D1CE00324D564
:101FE00021461A9B199A049800F04EF845191CE0F6
:101FF0000098002807DB00990598884203DD1598B2
:10200000405C199901E0199930201A9A904700987C
:102010006D1C401C00900298401E0290002804D1C4
:102020001A9A2E20199990476D1C0199481E01900B
:102030000029DDDC05E038781A9A7F1C1999904751
:102040006D1C0399481E03900029F4DC21461A9B5D
:10205000199A0498ACE600002D0000002B00000047
:102060002000000000000000F8B5044600251E46D0
:102070001746880404D405E039462020B0476D1C7B
:10208000641EF9D52846F8BDFFB50446002581B089
:102090001E46C80301D5302700E02027880404D558
:1020A00005E038460399B0476D1C641EF9D52846F3
:1020B00005B0F0BD10B50446C0B200F08BF8204664
:1020C00010BD000000F096F8112219A11AA0FFF728
:1020D00057FB1DA0FFF754FB122215A116A0FFF716
:1020E0004FFB1BA0FFF74CFB132211A112A0FFF71F
:1020F00047FB21A0FFF744FB15220DA10EA0FFF71F
:102100003FFB1EA0FFF73CFBFEF778FC192208A15D
:1021100009A0FFF735FB1CA0FFF732FB1B2204A12F
:1021200024A0FFF72DFB27A0FFF72AFBFEE7000006
:102130006D61696E2E630000252D313073092534E1
:1021400064205B445D2000000A0D0A0D00000000C1
:10215000202020202020202A2A2A2057656C636F07
:102160006D6520746F207468652050726F6A6563B6
:1021700074202A2A2A0A0D000A0D00004C4344202C
:10218000546573740D0A0000706C65617365206995
:102190006E707574206868EFBC9A6D6DEFBC9A73B1
:1021A0007320746F206368616E67652074696D6564
:1021B0000D0A0000252D31307309253464205B4958
:1021C0005D2000005374617274206C6F6F700A0D93
:1021D0000000000010B5064C01462046FFF720FA2B
:1021E00080212046FFF7B1F90028F9D010BD00008A
:1021F0000038014010B5E12149020120FEF754FAF0
:1022000010BD00002422000800000020480000004B
:10221000E81700086C22000848000020280400008D
:10222000F817000864000000A00000003F065B4FA4
:10223000666D7D077F67777C395E797100000000ED
:102240004800000000000000010203040102030432
:102250000607080900000000000000000000000060
:0C22600000000000000000000000000072
:04000005080000C12E
:00000001FF
