:020000040000FA
:1000000008080020D9000000E1000000E300000023
:10001000E5000000E7000000E9000000000000002B
:10002000000000000000000000000000EB000000E5
:10003000ED00000000000000EF000000F1000000F3
:10004000F3000000F3000000F3000000F3000000E4
:10005000F3000000F3000000F3000000F3000000D4
:10006000F3000000F3000000F3000000F3000000C4
:10007000F3000000F3000000F3000000F3000000B4
:10008000F3000000F3000000F3000000F3000000A4
:10009000F3000000F3000000F3000000F300000094
:1000A000F3000000F3000000F3000000F300000084
:1000B000F3000000F3000000F3000000F300000074
:1000C000F3000000DFF80CD000F018F800480047FB
:1000D000C70100000808002006488047064800477E
:1000E000FEE7FEE7FEE7FEE7FEE7FEE7FEE7FEE7E8
:1000F000FEE7FEE731010000C5000000064C074D99
:1001000006E0E06840F0010394E8070098471034E7
:10011000AC42F6D3FFF7DAFFC8010000E8010000A7
:100120000249014808607047006CDC0200000020B2
:100130000CB51848416A21F0FF0141F03F014162CE
:100140001549016215480190154801A9016015493A
:100150004160032181604FF48031C16041004868F3
:1001600020F400704860486840F4807048600020C7
:1001700000904FF4487203E000BF0098401C0090CC
:1001800000989042F8D3486840F003004860FFF7B9
:10019000C7FF0CBD00002040010055D5334482B498
:1001A000000040A0CF00040002E008C8121F08C1F0
:1001B000002AFAD170477047002001E001C1121FE8
:1001C000002AFBD17047FEE7E80100000000002094
:1001D00004000000A8010000EC0100000400002061
:0C01E00004080000B8010000006CDC0204
:04000005000000C532
:00000001FF
