:020000040800F2
:1000000008040020D5000008E3010008E101000811
:1000100000000000000000000000000000000000E0
:1000200000000000000000000000000019020008AD
:100030000000000000000000E5010008AD0200081B
:100040000501000805010008050100080501000878
:100050000501000805010008050100080501000868
:100060000000000005010008050100080501000866
:100070000501000805010008050100080000000056
:100080000501000805010008000000000501000846
:100090000501000805010008050100080501000828
:1000A0000501000805010008050100080501000818
:1000B0000501000800000000000000000501000824
:1000C0000348854600F032F8004800473103000835
:1000D000080400200C4880F308880C480168090EC9
:1000E0000B4A914205D10B480B4901600B480C4962
:1000F00001600C4880470C480047FEE7FEE7FEE73A
:10010000FEE7FEE7FEE70000080400200400000010
:100110001F00000018100240010000000000014014
:1001200000000000B1020008C1000008064C0125D3
:10013000064E05E0E36807CC2B430C3C984710348F
:10014000B442F7D3FFF7C0FFC4030008E40300087C
:10015000F0B50022012423460D6893401D409D42C6
:100160002AD10D79012D01D0022D12D187685500B9
:100170000326AE40B74387604E79AE4085682E4374
:10018000866085889D43858085888B7993401D4353
:100190008580066855000323AB409E4306600E79B8
:1001A0000768AE403E430660C6689E43C660CB7992
:1001B000AB40C5682B43C360521C102ACBD3F0BDA3
:1001C0004B07DB0E9A40C90810B589000818016A70
:1001D0000F249C40A1430162016A1143016210BDDA
:1001E0007047704770470000044A0029516901D0E8
:1001F000014300E08143516170470000001002405C
:10020000044A53681B021B0A000608431843506047
:100210007047000000100240704700003CB500220B
:1002200020480192009201680123194301600221D4
:100230000524240305680D400095019D6D1C019562
:10024000009D002D02D1019DA542F3D10468A407B1
:1002500026D50093144B1F221A6042684260426800
:10026000426042687F23DB039A4342604268212355
:10027000DB031A434260026801231B061A43026033
:1002800002689201FCD5426892089200426042687E
:100290000A43426041680907890F0229FAD13CBD2F
:1002A00000923CBD00100240002002407047000058
:1002B00010B5144801680122114301604168124AD7
:1002C000114041600168114A11400160016801223A
:1002D00092049143016041683F22120491434160BE
:1002E000C16A09090901C162016BFF2254329143BD
:1002F0000163416B49084900416300218160FFF7B8
:100300008DFF10BD001002400CB8FFF8FFFFF6FE95
:1003100002E008C8121F08C1002AFAD170477047CE
:10032000002001E001C1121F002AFBD1704700002C
:100330000121C804FFF758FF204D0324A402012027
:100340002C6028710026AE7103276F71EE7129466B
:100350001B48FFF7FDFE01214804FFF745FFFF2082
:100360000130286002202871AE716F71EE7129464C
:100370000925ED062846FFF7EBFE00220821284656
:10038000FFF71EFFA1040420FFF73AFF0C490C48B9
:10039000203184610C8184610C8184610C818461D1
:1003A0000C8184610C8184610C8184610C81846185
:1003B0000C8184610C8184610C81EAE700000020DB
:1003C00000080048E40300080000002008000000C6
:1003D00010030008EC0300080800002000040000DF
:0C03E000200300080000000000000000E6
:04000005080000C12E
:00000001FF
