:020000040800F2
:1000000050040020D50000086F0500086D050008A9
:1000100000000000000000000000000000000000E0
:10002000000000000000000000000000E9070008D8
:100030000000000000000000E1050008FD080008C5
:100040000501000805010008050100080501000878
:1000500005010008050100080501000879030008F2
:100060000000000005010008050100080501000866
:100070000501000805010008050100080000000056
:100080007D090008050100080000000005010008C6
:100090000501000805010008050100080501000828
:1000A0000501000805010008050100080501000818
:1000B0000501000800000000000000000501000824
:1000C0000348854600F09EF800480047491500089F
:1000D000500400200C4880F308880C480168090E81
:1000E0000B4A914205D10B480B4901600B480C4962
:1000F00001600C4880470C480047FEE7FEE7FEE73A
:10010000FEE7FEE7FEE700005004002004000000C8
:100110001F00000018100240010000000000014014
:100120000000000001090008C100000830B50B46BE
:10013000014600202022012409E00D46D5409D42C1
:1001400005D31D469540491B254695404019154647
:10015000521E002DF1DC30BD70B50024254600286C
:1001600001DA01244042002901DA01254942FFF762
:10017000DDFFAC4200D04042002C00D0494270BDAF
:1001800003460B439B0703D009E008C9121F08C0B0
:10019000042AFAD203E00B780370401C491C521E5B
:1001A000F9D27047F0B51FB40646002082B005466C
:1001B0004024019100901BE0019922460F463046F1
:1001C00000F042F8049A059B801A994110D310461A
:1001D0001946224600F028F8361A8F410197224628
:1001E00001200021009F00F01FF838184D410090B9
:1001F0002046641E0028DFDC019B00982946324619
:1002000007B0F0BD064C0125064E05E0E36807CCBB
:100210002B430C3C98471034B442F7D3FFF754FFFC
:10022000C0190008E019000810B5202A04DB0146B7
:10023000203A9140002010BD914020239C1A034693
:10024000E3401943904010BD10B5202A04DB084656
:10025000203AD040002110BD0B46D340D04020248E
:10026000A21A91400843194610BD10B50B46002153
:10027000846A1C43846200BF0C46144321464161DA
:1002800010BD002904D0826801231A43826003E074
:10029000826802231A4382607047000010B504464A
:1002A0000548844207D10121401500F0CBF9002117
:1002B000601500F0C7F910BD0024014030B50146BB
:1002C0000020002200238C680125ED072C438C6060
:1002D00000BF8C68E30FDB07521C0F242403A242EB
:1002E00001D0002BF5D18C68E40FE407002C01D17C
:1002F000086C00E0002030BD0146086C80B27047F9
:1003000030B5024600200023012424060C40002CB6
:1003100005D0946801252D06AC43234600E0136800
:100320001C460C40002C01D0012000E0002030BD14
:1003300010B50022C268084B1A400C7964030B68A0
:1003400023438C682343CC6823430C6923434C69C3
:1003500023431A43C26010BD03D2FFFF8168042209
:100360001143816070470021016001718160C160AB
:10037000016141617047000010B5FF20013000F0BD
:1003800039F8002812D0FF20013000F02DF8352276
:1003900007A10AA000F00CFC0CA000F009FC114819
:1003A0000068002802D00F480068804710BD000098
:1003B00066745F657869742E63000000252D313006
:1003C0007309253464205B445D200000455854497E
:1003D000345F31355F49525148616E646C65720A11
:1003E0000D0000004C0000200149486170470000EA
:1003F0000004014001460020044A52690A40002AD4
:1004000001D0012000E000207047000000040140FE
:10041000002120498279002A35D00A4612680368F3
:100420009A430B461A600A46526803689A430B4681
:100430005A60027951180A6803681A430A60154A1B
:10044000926803689A43134B9A601A46D26803680D
:100450009A43104BDA604279102A0CD11A469268FE
:1004600003681A430B4B9A601A46D26803681A4312
:10047000084BDA600DE00749427951180A680368B1
:100480001A430A6005E0027951180A6803689A4322
:100490000A60704700040140F0B50A4600210023BD
:1004A000002400BF3DE001258D402B4615681D400E
:1004B0002C469C4234D11579012D02D01579022D9C
:1004C00016D185684F000326BE40B5438560557937
:1004D0004E00B540866835438560858801268E408C
:1004E000B5438580858896798E40B6B23543858040
:1004F00005684F000326BE40B543056015794E00E0
:10050000B540066835430560C5684F000326BE4008
:10051000B543C560D5794E00B540C6683543C56062
:10052000491C1029BFD3F0BDF0B5002300244D07AE
:10053000EE0E1546B5402B46CD10AE0005462035D3
:10054000AD594E07F70E0F26BE40B543CE10B6008C
:1005500007462037BD51CD10AE003D46AD591D4375
:100560002C46CD10AD003E467451F0BD704770472B
:1005700000218278002A27D0184A03231B02D218B0
:1005800003789B109B00D15802789207D30EFF226C
:100590009A400B469343194642789207120E03780D
:1005A0009B07DB0E9A4011430C4A03231B02D2180F
:1005B00003789B109B00D1500278D306DB0E0122FA
:1005C0009A40064B1A6007E00278D306DB0E012240
:1005D0009A40024B80331A607047000000E100E04F
:1005E00070470000002905D0054A52690243044BB8
:1005F0005A6104E0024A52698243014B5A617047D2
:1006000000100240002905D0054AD2690243044B7C
:10061000DA6104E0024AD2698243014BDA61704731
:1006200000100240002905D0054A92690243044B9C
:100630009A6104E0024A92698243014B9A617047D1
:1006400000100240002905D0054AD2680243044B3D
:10065000DA6004E0024AD2688243014BDA607047F4
:1006600000100240FEB5044600250026002002903E
:10067000019000900027564840680C21084005462C
:10068000002D06D0042D07D0082D08D00C2D2CD11C
:1006900028E0504820602BE04E48206028E04C487D
:1006A00040680F21890408400646494840680321F4
:1006B000C90308400290B00C861C0298002803D1A0
:1006C0004548374647430BE04148C06A0007000FE2
:1006D000401C01903F480199FFF728FD70430746F1
:1006E000276005E03D48206002E03A48206000BFF6
:1006F00000BF37484068F021084005462D093848BA
:10070000405D009020680099C840606030484068B3
:1007100007210902084005462D0A3148405D009036
:1007200061680098C140A1602948006BFF21013138
:100730000840884202D02B48E0600DE02448406821
:10074000012189030840884203D0A0684008E06086
:1007500002E0A0688008E0601D48006B102108409E
:10076000102802D01B48606101E0206860611848D1
:10077000006B8007800F002802D1A068A06119E0FB
:100780001348006B8007800F012802D12068A06108
:1007900010E00F48006B8007800F022802D1800311
:1007A000A06107E00A48006B8007800F032801D191
:1007B0000848A061A068E0610548006B80210840FE
:1007C000802802D00548606200E06762FEBD00003C
:1007D0000010024000127A0000093D00006CDC02AB
:1007E00020000020809FD5007047000030B5002217
:1007F0008B071C0F0F23A3401A460B4B8C10A40031
:100800001B599343084C8D10AD00635123468C1047
:10081000A4001B598C07250F0446AC402343024C0F
:100820008D10AD00635130BD080001400CB50020B3
:10083000019000902F480068012108432D4908606D
:1008400000BF2C4800680221084000900198401C1D
:1008500001900098002804D10521090301988842DD
:10086000EFD12448006802210840002802D001206E
:10087000009001E0002000900098012838D11F204E
:100880001D4908601B4840681A494860084640688E
:100890004860084640687F21C9038843154948607D
:1008A00008464068C9000843124948600846006885
:1008B0000121090608430F49086000BF0D48006880
:1008C0000121490608400028F8D00A4840688008FD
:1008D00080000849486008464068022108430549ED
:1008E000486000BF034840680C2108400828F9D13F
:1008F0000CBD0000001002400020024070470000C4
:1009000010B51B48006801210843194908600846D2
:10091000406818490840164948600846006816496A
:10092000084013490860084600680121890488438B
:100930000F490860084640683F21090488430C4974
:1009400048600846C06A00090001C8620846006B9A
:10095000FF2154318843064908630846406B40082C
:100960004000486300208860FFF760FF10BD000072
:10097000001002400CB8FFF8FFFFF6FE10B5022190
:100980000C4800F02FF8002813D00221094800F08D
:1009900017F80948026840680021521C484106497E
:1009A0000A60486005480068002802D003480068D3
:1009B000804710BD000400403800002030000020B7
:1009C000CA43028270470000002904D00288012334
:1009D0001A43028003E00288014B1A4002807047EC
:1009E000FEFF000030B50246002000230024158AD7
:1009F0000D402B4695890D402C46002B03D0002C32
:100A000001D0012000E0002030BD002A03D08389FE
:100A10000B43838102E083898B438381704700000D
:100A200000220288154B984206D001239B0798426A
:100A300002D0134B984203D1124B1A404B881A43F1
:100A4000114B984203D0114B1A400B891A43028074
:100A50004B68C3620B880385084B984208D00C4B47
:100A6000984205D00B4B984202D00B4B984201D1D3
:100A70008B7A03860123838270470000002C01409B
:100A8000000400408FFF000000100040FFFC000049
:100A9000004001400044014000480140002904D0CA
:100AA000026801231A43026003E002685208520000
:100AB0000260704702460020D3690B40002B01D032
:100AC000012000E000207047F0B58BB004460D46D1
:100AD000002700200A90002620684008400020607F
:100AE000666803210903304688430646A868064322
:100AF0006660266828480640E968686808432969EE
:100B0000084306432660A66803210902304688434D
:100B1000064668690643A6606846FFF7A3FD1F48BE
:100B2000844202D106980A9004E01D48844201D113
:100B300007980A9020680121C903084000280CD0BA
:100B400029680A9A5000FFF7F1FA074629680A9ABD
:100B50005000FFF7EBFA0E4609E029680A98FFF704
:100B6000E5FA074629680A98FFF7E0FA0E46286872
:100B70004008B04200D87F1C20680121C90308400A
:100B8000002806D03807460F38460649084030434B
:100B90000746A7810BB0F0BDF3E9FFFF0038014025
:100BA00000440040F0FF0000CA05D20D02857047E6
:100BB0000FB410B503A9044B044A029800F018F8CA
:100BC00010BC08BC04B01847931200084400002071
:100BD00002E008C8121F08C1002AFAD17047704706
:100BE000002001E001C1121F002AFBD17047000064
:100BF000FFB591B00F460546002606E025280AD02D
:100C0000149A139990476D1C761C28780028F5D10A
:100C1000304615B0F0BD002400940121F34A02943F
:100C200000E004436D1C2B780846203B984010429E
:100C3000F7D128782A280ED0022128780246303AA7
:100C4000092A15D8009A0A235A43303A80180C43CF
:100C50006D1C0090F1E701CF0090002805DA01201B
:100C600040030443009840420090022004436D1C5E
:100C700028782E2815D10420044368786D1C2A2872
:100C80000AD101CF6D1C02900BE002990A22514358
:100C9000303940186D1C02902878014630390929F6
:100CA000F3D928786C2810D006DC4C281AD0682894
:100CB0000ED06A2817D104E0742813D07A2812D1F4
:100CC00010E00120400504430CE00121090501E08A
:100CD000032109050C436978814203D101200005F5
:100CE00024186D1C6D1C287803906E281ED00CDC17
:100CF000632831D004DC00288AD0582811D1B2E012
:100D000064287BD069280CD178E073282DD004DCCE
:100D10006F2870D0702804D1A7E075286CD078288F
:100D20006BD0149A13999047761C62E06002400FD2
:100D3000022807D003280AD0042838680AD00660A1
:100D40003F1D56E03868F11706604160F8E73868E3
:100D50000680F5E70670F3E73878694608740020E6
:100D6000487404A80390012003E038680390002031
:100D7000C0433F1D61070FD5002101E00199491CC7
:100D8000029A0191914213DA8142F7DB019A0399A9
:100D9000895C0029F2D10BE0002101E00199491C96
:100DA00001918142FADB019A0399895C0029F5D10E
:100DB00001990098139A401A00902146149B00F064
:100DC0003BF901998019461807E0039803990078C8
:100DD000491C0391149A139990470198401E019061
:100DE000401CF2D12146149B139A009800F014F98C
:100DF00086196D1C09E741E033E034E00A20002148
:100E0000049005916002410F022905D001CFC2175D
:100E10009446032905D007E0FF1DFF08FF0003CF1C
:100E200006E000B2C2179446042902D140B2C117AD
:100E30008C4600226146944506DA0A46002140426B
:100E400091418C462D2102E0210504D52B216A46D3
:100E50001176012103E0E10701D02021F7E701919C
:100E600054E00A200BE0102009E01020049000213B
:100E70000420044308200591029003E0082000218B
:100E8000059104906002410F022905D001CF002294
:100E90009446032906D006E0FF1DFF08FF0003CF9C
:100EA0008C4603E080B2042900D1C0B20021019138
:100EB00021072BD50399702906D0049A1021059B90
:100EC0004A401A4305D00EE040216A4611760121BE
:100ED00008E06146014306D030216A461176039945
:100EE000517602210191049A0821059B4A401A4338
:100EF0000CD16146014301D1610707D530216A4613
:100F00001176012101910299491E029103995829F4
:100F100004D037A103910FA90F910DE039A1F9E792
:100F20006146059B049AFFF73DF9039B8C469B5C49
:100F30000F9A521E0F92137061460143F0D10F9821
:100F400007A9081A20300390600704D50120000487
:100F50008443029801E0012002900399884201DD58
:100F6000401A00E0002041180290019809180098EA
:100F7000401A0090E00306D42146149B139A00986F
:100F800000F05AF886190020049008E006A9085CD1
:100F9000149A139990470498401C761C0490019968
:100FA0008842F3DBE0030CD52146149B139A00988A
:100FB00000F042F8861904E0149A30201399904703
:100FC000761C0299481E02900029F5DC08E00F9873
:100FD0000F990078491C0F91149A13999047761C29
:100FE0000399481E03900029F1DCFBE60928010063
:100FF000303132333435363738396162636465668F
:101000000000000030313233343536373839414250
:101010004344454600000000F8B5044600251E463E
:101020001746880404D405E039462020B0476D1CDB
:10103000641EF9D52846F8BDFFB50446002581B0E9
:101040001E46C80301D5302700E02027880404D5B8
:1010500005E038460399B0476D1C641EF9D5284653
:1010600005B0F0BD10B5044600BF04210448FFF7E9
:1010700047F90028F9D00248FFF73EF910BD0000FB
:101080000024014000B589B001214804FFF7AAFA05
:1010900001214802FFF7C6FA0120019003216846AA
:1010A00001720021C17201A90920C006FFF7F4F9FD
:1010B0001548FFF7F3F803A8FFF755F90020039050
:1010C000012168460174002005900790089003A94B
:1010D0000D48FFF72DF9072201210B48FFF7C5F84E
:1010E0000948FFF7EBF801210748FFF7CAF800BFEE
:1010F00001210548FFF704F90028F9D00248FFF75D
:101100002DF909B000BD00000024014010B50024F5
:1011100004200B49087000F05BF8094800F012F851
:10112000FF20F53000F0BEF8054800F00BF8FF2076
:10113000F53000F0B7F8024800F004F8204610BD82
:101140001400002038B504460020009000252078C7
:101150006B467022262100F043FA0546002D01D18E
:1011600000986080842205A107A0FFF721FD628816
:10117000294609A0FFF71CFD284638BD626B3935AA
:1011800033782E6300000000252D3130730925349B
:1011900064205B445D200000626B393533785F6307
:1011A0006869705F69645F676574206572725F6308
:1011B0006F6465203D202564202C20636869705F82
:1011C0006964203D203078253038780A0D00000011
:1011D00010B500F01CFA10BDFEB507460C461546CA
:1011E0001E4601213846FFF7FDF9009500216846AB
:1011F0000171C67169462046FFF74EF9FEBD7CB508
:1012000006460C46154601213046FFF7EBF90095DE
:101210000121684601710021817103214171012181
:10122000C17169462046FFF737F97CBD00B585B02E
:1012300001214804FFF7D6F901210846FFF7F2F92A
:10124000FF20013001900021684601720121C17226
:1012500001A90920C006FFF71FF908210020FFF7A8
:10126000C5FAFF20013003900021684601740C216B
:1012700041740121817403A8FFF7CAF80721684669
:1012800001700021417001218170FFF771F905B0F3
:1012900000BD70B504460D46E1B2002000F0C6F86E
:1012A000204670BD70B50446002500BF05E07D20D6
:1012B000C00000F005F8681C85B2A542F7DB70BDE0
:1012C000F0B585B006462948406A87B2B81980B2A1
:1012D000049000F055F804460D467D21C90004989D
:1012E00088423BDD0846C01B301A80B20390039849
:1012F000FEF732FF80B20290002001907D21C900EC
:10130000029848430399081A80B2009000BF00F089
:1013100037F8604069400843F9D000F031F80446DE
:101320000D46002001900EE000BF00F029F860405B
:1013300069400843F9D000F023F804460D460198AF
:10134000401C80B20190029901988842ECDB00BFFA
:101350000648416A00988142FAD305E000BF03487D
:10136000416A04988142FAD305B0F0BD0004004000
:10137000002001E0411CC8B20228FBDB70470000DE
:10138000014903C970470000380000200FB430B590
:1013900089B00546169C129A1199114308460121FD
:1013A000FFF720F901211098FFF73CF910AB9B8A59
:1013B000DAB210AB198A0E98FFF7B6F810ABDB8AD9
:1013C000DAB210AB598A0F98FFF7AEF810AB9889D4
:1013D0000790022008AB1870012058700020987008
:1013E0000120D87007A90E98FFF756F810ABD889DE
:1013F000079007A90F98FFF74FF8206801906068E1
:101400000290A0680390E0680490606905902069EC
:10141000069001A90D98FFF757FB01210D98FFF7E2
:101420003DFB09B030BC08BC04B0184770B5044699
:101430000D46012C0BD129460B48FFF7B5FB00BF29
:1014400080210948FFF736FB0028F9D070BD2946F6
:101450000648FFF7A9FB00BF80210448FFF72AFBDD
:101460000028F9D000BFF1E70044004000380140F7
:10147000F7B582B00E461746002001903C46002585
:101480007000401CC0B2019000F003FA029800F016
:1014900073F900F03EFA0546002D0AD0202218A16B
:1014A0001BA0FFF785FB1EA0FFF782FB284605B0B7
:1014B000F0BD019800F060F900F02BFA0546002D10
:1014C00009D029220EA112A0FFF772FB14A0FFF78A
:1014D0006FFB2846EBE7012000F012F92070012095
:1014E00000F00EF96070012000F00AF9A0700020F1
:1014F00000F006F9E07000F0ECF92846D7E70000AC
:101500006D69645F626B393533782E6300000000CB
:10151000252D31307309253464205B455D200000A2
:10152000736C61766572206E6F2061636B210A0DAA
:1015300000000000038A0B40002B01D0012300E0D3
:101540000023137070470000002400F0A1F800F0A1
:1015500069F8FFF7DBFDFFF769FEFFF793FD2C222B
:101560000CA10EA0FFF724FB10A0FFF721FB10E059
:101570000020FFF777FD0446372206A10FA0FFF7F2
:1015800017FB214611A0FFF713FB7D20C000FFF7DA
:1015900089FEEDE76D61696E2E630000252D313007
:1015A0007309253464205B495D2000005374617227
:1015B00074206C6F6F700A0D00000000252D313013
:1015C0007309253464205B445D2000006164635F1F
:1015D00076616C7565203D2025640A0D00000000D1
:1015E000F8B504460D4616461F4600200090002C14
:1015F00002D0042C08D100E006E03A4631462846E5
:10160000FFF736FF009000BF00BF0098F8BD10B58F
:1016100000F0B9F910BD002A01D0816100E0018518
:10162000704700001FB5164916480068FEF77EFD9A
:10163000401E1549088001210220FEF7E3FF10211A
:10164000684601700021417001218170FEF790FF12
:101650007D20C00002900C480188684681800021EE
:101660008181C18001A90948FFF7DAF9012202212D
:101670000648FFF7CAF901210448FFF7A5F91FBD85
:1016800040420F0000000020400000200004004005
:1016900000B597B019480E900920C0060F90109021
:1016A000012080031190C00012901390011210A825
:1016B000018249004182092181820A21C1820121DE
:1016C00001834183E12040020790002008900990A7
:1016D0000A900B900C200C90002108A8017507A817
:1016E000182211A906906846FEF74AFD00200EA9AF
:1016F0000EC9FFF74BFE17B000BD000000380140D7
:10170000F8B5054600260024002000900123DA02E7
:101710000921C9069001FFF75FFD00BF21E06006C7
:10172000040E0022012109030920C006FFF773FF00
:10173000FFF71EFE012211030920C006FFF76BFF11
:101740006A460121C9020920C006FFF7F3FE684678
:101750000078002801D0601CC4B2FFF709FE701C9D
:10176000C6B2082EDBDB002D02D000F043F801E00A
:1017700000F068F82046F8BD70B504460025002644
:101780000122D2020921C9069001FFF738FD00228B
:10179000012109030920C006FFF73DFF00BF20E03B
:1017A00080202040C61132460121C9020920C0060E
:1017B000FFF731FFFFF7DCFD012211030920C0060E
:1017C000FFF729FFFFF7D4FD0022012109030920BB
:1017D000C006FFF720FFFFF7CBFD6006040E681C74
:1017E000C5B2082DDCDB0122D1020920C006FFF7BB
:1017F00012FF70BD10B50022012109030920C006A7
:10180000FFF709FF0122D2020921C9069001FFF763
:10181000F6FC00220121C9020920C006FFF7FBFEE9
:10182000FFF7A6FD012211030920C006FFF7F3FE12
:10183000FFF79EFD0022012109030920C006FFF7E2
:10184000EAFE10BD10B50022012109030920C006DF
:10185000FFF7E1FE0122D2020921C9069001FFF73C
:10186000CEFC0122D1020920C006FFF7D4FEFFF70B
:101870007FFD012211030920C006FFF7CCFEFFF710
:1018800077FD0022012109030920C006FFF7C3FEEE
:1018900010BD10B50122D1020920C006FFF7BBFE22
:1018A000012211030920C006FFF7B5FEFFF760FD16
:1018B00000220121C9020920C006FFF7ACFEFFF794
:1018C00057FD0022012109030920C006FFF7A3FEEE
:1018D00010BD10B500220121C9020920C006FFF782
:1018E0009AFE0022012109030920C006FFF793FE9A
:1018F000FFF73EFD012211030920C006FFF78BFE12
:10190000FFF736FD0122D1020920C006FFF783FE52
:1019100010BD38B50024002000900123DA0209210F
:10192000C9069001FFF758FC012211030920C006E7
:10193000FFF771FEFFF71CFD6A460121C90209206D
:10194000C006FFF7F7FD11E0601CC4B2FA2C04DDFD
:10195000FFF7BFFF0420C04338BD6A460121C9021A
:101960000920C006FFF7E6FDFFF702FD6846007894
:101970000028E9D10022012109030920C006FFF750
:101980004AFE0020E8E710B5012212030921C9062A
:101990005001FFF734FC012211030920C006FFF7B4
:1019A0003AFE0122D2020921C9069001FFF727FC65
:1019B0000122D1020920C006FFF72DFE10BD000054
:1019C000E01900080000002050000000D00B0008C3
:1019D000301A00085000002000040000E00B00084E
:1019E000006CDC02000000000000000001020304A3
:1019F00006070809000000000000000000000000C9
:101A000000000000010203040102030406070809A4
:101A100000000000000000000000000000000000C6
:101A200000000000000000000000000000000000B6
:04000005080000C12E
:00000001FF
