:020000040800F2
:1000000000040020D5000008E3010008E101000819
:1000100000000000000000000000000000000000E0
:1000200000000000000000000000000009020008BD
:100030000000000000000000E5010008DD020008EB
:100040000501000805010008050100080501000878
:100050000501000805010008050100080501000868
:100060000000000005010008050100080501000866
:100070000501000805010008050100080000000056
:100080000501000805010008000000000501000846
:100090000501000805010008050100080501000828
:1000A0000501000805010008050100080501000818
:1000B0000501000800000000000000000501000824
:1000C0000348854600F032F800480047CD03000899
:1000D000000400200C4880F308880C480168090ED1
:1000E0000B4A914205D10B480B4901600B480C4962
:1000F00001600C4880470C480047FEE7FEE7FEE73A
:10010000FEE7FEE7FEE70000000400200400000018
:100110001F00000018100240010000000000014014
:1001200000000000E1020008C1000008064C0125A3
:10013000064E05E0E36807CC2B430C3C984710348F
:10014000B442F7D3FFF7C0FF1004000820040008F2
:10015000F0B50A4600210023002400BF3DE0012540
:100160008D402B4615681D402C469C4234D1157994
:10017000012D02D01579022D16D185684F00032676
:10018000BE40B543856055794E00B540866835431D
:100190008560858801268E40B5438580858896795F
:1001A0008E40B6B23543858005684F000326BE40B9
:1001B000B543056015794E00B540066835430560C6
:1001C000C5684F000326BE40B543C560D5794E00D3
:1001D000B540C6683543C560491C1029BFD3F0BD82
:1001E0007047704770470000002905D0054A5269E2
:1001F0000243044B5A6104E0024A52698243014BB4
:100200005A61704700100240704700000CB5002092
:10021000019000902F480068012108432D49086093
:1002200000BF2C4800680221084000900198401C43
:1002300001900098002804D1052109030198884203
:10024000EFD12448006802210840002802D0012094
:10025000009001E0002000900098012838D11F2074
:100260001D4908601B4840681A49486008464068B4
:100270004860084640687F21C903884315494860A3
:1002800008464068C90008431249486008460068AB
:100290000121090608430F49086000BF0D480068A6
:1002A0000121490608400028F8D00A484068800823
:1002B0008000084948600846406802210843054913
:1002C000486000BF034840680C2108400828F9D165
:1002D0000CBD0000001002400020024070470000EA
:1002E00010B51B48006801210843194908600846F9
:1002F0004068184908401649486008460068164991
:1003000008401349086008460068012189048843B1
:100310000F490860084640683F21090488430C499A
:1003200048600846C06A00090001C8620846006BC0
:10033000FF2154318843064908630846406B400852
:100340004000486300208860FFF760FF10BD000098
:10035000001002400CB8FFF8FFFFF6FE02E008C8EC
:10036000121F08C1002AFAD170477047002001E02F
:1003700001C1121F002AFBD170477CB506460C460E
:10038000154601213046FFF72FFF009501216846F1
:10039000017100218171032141710121C1716946FF
:1003A0002046FFF7D5FE7CBD0021002200BF07E0FC
:1003B000002201E0531C9AB28242FBD34B1C99B23B
:1003C000FF232D339942F3DB7047000002220B49D3
:1003D0000802FFF7D2FF0FE001220221074800F0D8
:1003E00011F80748FFF7E0FF00220221034800F060
:1003F00009F80348FFF7D8FFEEE7000000040048C3
:1004000088130000002A01D0816100E00185704757
:100410002004000800000020000400006C03000815
:04000005080000C12E
:00000001FF
