:020000040800F2
:10000000D8040020D5000008A7020008A5020008B7
:1000100000000000000000000000000000000000E0
:100020000000000000000000000000001D040008A7
:100030000000000000000000F9020008B104000800
:100040000501000805010008050100080501000878
:100050000501000805010008050100080501000868
:100060000000000005010008050100080501000866
:100070000501000805010008050100080000000056
:100080001505000805010008000000000501000832
:100090000501000805010008050100080501000828
:1000A0000501000805010008050100080501000818
:1000B00071050008000000000000000005010008B4
:1000C0000348854600F048F8004800474907000803
:1000D000D80400200C4880F308880C480168090EF9
:1000E0000B4A914205D10B480B4901600B480C4962
:1000F00001600C4880470C480047FEE7FEE7FEE73A
:10010000FEE7FEE7FEE70000D80400200400000040
:100110001F00000018100240010000000000014014
:1001200000000000B5040008C100000830B50B460F
:10013000014600202022012409E00D46D5409D42C1
:1001400005D31D469540491B254695404019154647
:10015000521E002DF1DC30BD064C0125064E05E097
:10016000E36807CC2B430C3C98471034B442F7D3D8
:10017000FFF7AAFF5808000878080008F3B50546FD
:10018000840022492148091D0059095983B00843B8
:10019000012100F0B3F81D480121001F005900F0B3
:1001A000B9F81A486D000838425D001F184E415BCF
:1001B000305900F067F81548371D801F425D001F59
:1001C000415B385900F05EF8104869461038405BD2
:1001D0000090022008710120487100228A71C871C4
:1001E000305900F017F8094869460E38405B009016
:1001F000385900F00FF8351F2859049900F03EFADD
:100200002859012100F0F8F905B0F0BDE407000815
:1002100004000020F0B50022012423460D6893401D
:100220001D409D422AD10D79012D01D0022D12D100
:10023000876855000326AE40B74387604E79AE40CD
:1002400085682E43866085889D43858085888B7967
:1002500093401D438580066855000323AB409E43B1
:1002600006600E790768AE403E430660C6689E434E
:10027000C660CB79AB40C5682B43C360521C102AC3
:10028000CBD3F0BD4B07DB0E9A40C90810B58900EF
:100290000818016A0F249C40A1430162016A1143BE
:1002A000016210BDFEE7704730B583780121027806
:1002B000002B15D094080E4BA400E4182368920775
:1002C000D50EFF22AA40934342789207120EAA400D
:1002D0001A4322600078C006C00E8140054804E041
:1002E000D006C00E814003488030016030BD000060
:1002F00000E400E000E100E070470000044A00294B
:10030000516901D0014300E0814351617047000011
:1003100000100240044A0029D16901D0014300E0E5
:100320008143D1617047000000100240F8B5354D9F
:100330000446696800200C22334E114005D0042980
:1003400003D0082903D00C2918D0266018E069686A
:10035000686803228902D2030F0F1040BF1C0028D7
:1003600009D0E86A0107090F3046491CFFF7DEFE95
:100370007843206004E025487843FAE72449216067
:100380006968244F0906090F7B5C21680A46DA4038
:1003900062606B685B055B0FFB5CDA40A2602B6BF5
:1003A000DB0501D41C4B05E06B685B0401D45308EA
:1003B00000E09308E3602B6BDB0601D4666100E08C
:1003C00061612B6B9B070ED02B6B9B079B0F012B47
:1003D0000BD0296B8907890F022908D0296BC943E3
:1003E000890707D007E0A26105E0A16103E00121D0
:1003F000C903FAE7A661E261296B090600D4044843
:100400006062F8BD0010024000127A0000093D0051
:10041000006CDC0298000020809FD500704700002F
:100420003CB5002220480192009201680123194343
:10043000016002210524240305680D400095019DFB
:100440006D1C0195009D002D02D1019DA542F3D1A7
:100450000468A40726D50093144B1F221A60426833
:1004600042604268426042687F23DB039A434260F5
:1004700042682123DB031A434260026801231B0602
:100480001A43026002689201FCD542689208920009
:10049000426042680A43426041680907890F0229A5
:1004A000FAD13CBD00923CBD001002400020024049
:1004B0007047000010B51448016801221143016023
:1004C0004168124A114041600168114A11400160BF
:1004D0000168012292049143016041683F221204A5
:1004E00091434160C16A09090901C162016BFF22A0
:1004F000543291430163416B490849004163002133
:100500008160FFF78DFF10BD001002400CB8FFF8AE
:10051000FFFFF6FE10B50C4C0221204600F01BF840
:1005200000280FD00221204600F012F807480023CF
:100530008268C168521C59418260C16040680028CD
:1005400000D0804710BD000000040040A80000203B
:10055000C943018270470246138A002092890B40EA
:100560000A40002B02D0002A00D001207047000072
:1005700070B51C4E1C4D3146284600F04EF81B4C01
:10058000002813D0284600F0C7F84006A288400E85
:1005900017498918521CA2800870A0886178884287
:1005A00004D100223146284600F053F8114E284667
:1005B000314600F032F8002812D0A0780B49891D8E
:1005C0000918401CA0700978284600F0A9F8A07806
:1005D0002178884204D100223146284600F039F8BB
:1005E00070BD0000050105000044004034000020FB
:1005F000B8000020070107000029016802D001228D
:10060000114301E049084900016070470246D26980
:1006100000200A4200D00120704730B50A04130EB2
:100620000122144600258C40012B0ED0022B0ED047
:100630008368090C2340C0698A401040002B02D017
:10064000002800D00125284630BD0368F1E7436843
:10065000EFE710B50B041C0E01238B40022C02D0D7
:10066000032C02D002E0001D00E008300168002ADF
:1006700001D0194300E09943016010BD70B50446F4
:1006800000688AB00D46002640084000206060687F
:10069000032109038843A9680143616020681A495E
:1006A000EA680840696811432A69024311432160DE
:1006B000A06803210902884369690143A160684673
:1006C000FFF734FE1148844201D1069E03E0104832
:1006D000844200D1079E20682968000401D570007B
:1006E00000E03046FFF722FD2A6852088A4200D80F
:1006F000401C2168090404D50107064A490F10402F
:100700000843A0810AB070BDF3E9FFFF0038014043
:1007100000440040F0FF0000808CC005C00D704711
:10072000C905C90D0185704702E008C8121F08C13C
:10073000002AFAD170477047002001E001C1121F62
:10074000002AFBD17047000086B01C21684601706A
:100750000024447001218170FFF7A6FDE1204002D2
:1007600000900120400302900C2004900194039417
:10077000059469460020FFF701FD104C01220E4947
:100780002046FFF766FF0F480D4900780A7882423D
:10079000FCD340212046FFF739FF0028F9D0012281
:1007A00009492046FFF755FF0948084900780A889B
:1007B0008242FCD3FEE7000007010700004400402E
:1007C000360000203400002005010500380000201C
:1007D00035000020040008000200030001000100B1
:1007E00000000200000002000000020000040008F7
:1007F00000100400000008000000080000000800CD
:1008000000001000002008000400000200040100A5
:100810000000080000002000000020000000400050
:100820000000400000000200002008000400000258
:10083000000401000200040004000500050000009F
:100840000D000300020009000A0000000700060076
:1008500006000700070005007808000800000020D7
:10086000B80000002807000830090008B800002080
:100870002004000038070008004400400000004841
:100880000000004800080048000800480008004830
:10089000000C004800080048001000480010004804
:1008A0000014004800140048000000485D200000CB
:1008B00000000A0D555341525420487970657274F6
:1008C00065726D696E616C20496E746572727570C7
:1008D0007473204578616D706C653A2055534152B0
:1008E000542D48797065727465726D696E616C2003
:1008F000636F6D6D756E69636174696F6E2075737A
:10090000696E6720496E746572727570740A0D00A5
:1009100000000000010203040102030406070809A5
:1009200000000000000000000000000000000000C7
:04000005080000C12E
:00000001FF
