:020000040800F2
:1000000030040020D500000837020008350200083F
:1000100000000000000000000000000000000000E0
:10002000000000000000000000000000ED020008D9
:100030000000000000000000A9020008C103000841
:100040000501000805010008050100080501000878
:100050000501000805010008050100080501000868
:100060000000000005010008050100080501000866
:100070000501000805010008050100080000000056
:100080004104000805010008000000000501000807
:100090000501000805010008050100080501000828
:1000A0000501000805010008050100080501000818
:1000B0000501000800000000000000000501000824
:1000C0000348854600F05CF80048004785060008B4
:1000D000300400200C4880F308880C480168090EA1
:1000E0000B4A914205D10B480B4901600B480C4962
:1000F00001600C4880470C480047FEE7FEE7FEE73A
:10010000FEE7FEE7FEE700003004002004000000E8
:100110001F00000018100240010000000000014014
:1001200000000000C5030008C100000830B50B4600
:10013000014600202022012409E00D46D5409D42C1
:1001400005D31D469540491B254695404019154647
:10015000521E002DF1DC30BD70B50024254600286C
:1001600001DA01244042002901DA01254942FFF762
:10017000DDFFAC4200D04042002C00D0494270BDAF
:10018000064C0125064E05E0E36807CC2B430C3CEA
:1001900098471034B442F7D3FFF796FF34070008AE
:1001A00054070008F0B50A4600210023002400BFD0
:1001B0003DE001258D402B4615681D402C469C4294
:1001C00034D11579012D02D01579022D16D185680B
:1001D0004F000326BE40B543856055794E00B540BB
:1001E000866835438560858801268E40B5438580C5
:1001F000858896798E40B6B23543858005684F0074
:100200000326BE40B543056015794E00B54006682B
:1002100035430560C5684F000326BE40B543C56041
:10022000D5794E00B540C6683543C560491C1029D4
:10023000BFD3F0BD7047704700218278002A27D0D5
:10024000184A03231B02D21803789B109B00D15835
:1002500002789207D30EFF229A400B469343194629
:1002600042789207120E03789B07DB0E9A401143E7
:100270000C4A03231B02D21803789B109B00D15019
:100280000278D306DB0E01229A40064B1A6007E083
:100290000278D306DB0E01229A40024B80331A60AB
:1002A0007047000000E100E070470000002905D021
:1002B000054A52690243044B5A6104E0024A5269FA
:1002C0008243014B5A61704700100240002905D05B
:1002D000054AD2690243044BDA6104E0024AD2695A
:1002E0008243014BDA617047001002407047000002
:1002F0000CB50020019000902F48006801210843B0
:100300002D49086000BF2C48006802210840009079
:100310000198401C01900098002804D10521090390
:1003200001988842EFD12448006802210840002843
:1003300002D00120009001E00020009000980128E8
:1003400038D11F201D4908601B4840681A49486081
:10035000084640684860084640687F21C9038843D2
:100360001549486008464068C9000843124948607A
:10037000084600680121090608430F49086000BFCC
:100380000D4800680121490608400028F8D00A48B5
:10039000406880088000084948600846406802219B
:1003A00008430549486000BF034840680C210840E5
:1003B0000828F9D10CBD00000010024000200240C6
:1003C0007047000010B51B48006801210843194917
:1003D00008600846406818490840164948600846C1
:1003E0000068164908401349086008460068012162
:1003F000890488430F490860084640683F21090482
:1004000088430C4948600846C06A00090001C86278
:100410000846006BFF2154318843064908630846AB
:10042000406B40084000486300208860FFF760FF91
:1004300010BD0000001002400CB8FFF8FFFFF6FEF0
:1004400010B502210C4800F02FF8002813D002212B
:10045000094800F017F80948026840680021521C5A
:10046000484106490A60486005480068002802D0F3
:1004700003480068804710BD0004004020000020B1
:100480001C000020CA43028270470000002904D0EB
:10049000028801231A43028003E00288014B1A40BC
:1004A00002807047FEFF000030B5024600200023A6
:1004B0000024158A0D402B4695890D402C46002BB3
:1004C00003D0002C01D0012000E0002030BD002A24
:1004D00003D083890B43838102E083898B4383812B
:1004E0007047000000220288154B984206D0012375
:1004F0009B07984202D0134B984203D1124B1A40EB
:100500004B881A43114B984203D0114B1A400B8968
:100510001A4302804B68C3620B880385084B9842DC
:1005200008D00C4B984205D00B4B984202D00B4B95
:10053000984201D18B7A03860123838270470000A1
:10054000002C0140000400408FFF0000001000401C
:10055000FFFC000000400140004401400048014011
:1005600002E008C8121F08C1002AFAD1704770477C
:10057000002001E001C1121F002AFBD170477CB5A9
:1005800006460C46154601213046FFF78FFE0095C2
:10059000012168460171002181710321417101210E
:1005A000C17169462046FFF7FDFD7CBD70B504466C
:1005B000002500BF05E07D20C00000F005F8681CA4
:1005C00085B2A542F7DB70BDF0B585B00646294877
:1005D000406A87B2B81980B2049000F04DF8044622
:1005E0000D467D21C900049888423BDD0846C01BAA
:1005F000301A80B203900398FFF7AEFD80B20290EC
:10060000002001907D21C900029848430399081AEF
:1006100080B2009000BF00F02FF8604069400843AE
:10062000F9D000F029F804460D46002001900EE0B4
:1006300000BF00F021F8604069400843F9D000F0A5
:100640001BF804460D460198401C80B201900299A7
:1006500001988842ECDB00BF0648416A009881425D
:10066000FAD305E000BF0348416A04988142FAD3F7
:1006700005B0F0BD00040040014903C97047000007
:100680002000002000F020F802220B490802FFF7AA
:1006900076FF0FE001220221074800F00FF8C82082
:1006A000FFF784FF00220221034800F007F8C8206A
:1006B000FFF77CFFEEE7000000040048002A01D0AD
:1006C000816100E0018570471FB516491648006832
:1006D000FFF72CFD401E1549088001210220FFF77D
:1006E000F5FD1021684601700021417001218170E3
:1006F000FFF7A2FD7D20C00002900C4801886846EB
:10070000818000218181C18001A90948FFF7EAFEAB
:10071000012202210648FFF7DAFE01210448FFF713
:10072000B5FE1FBD40420F00000000202800002041
:100730000004004054070008000000202C000000C6
:1007400060050008800700082C0000200404000059
:1007500070050008006CDC020000000000000000D2
:1007600001020304060708090000000001A00000C0
:100770000000000000000000000000000000000079
:04000005080000C12E
:00000001FF
